{
	"toppo/FundMe.sol": {
		"FungMe": {
			"abi": [
				{
					"inputs": [
						{
							"internalType": "uint256",
							"name": "_lockTime",
							"type": "uint256"
						}
					],
					"stateMutability": "nonpayable",
					"type": "constructor"
				},
				{
					"inputs": [],
					"name": "fund",
					"outputs": [],
					"stateMutability": "payable",
					"type": "function"
				},
				{
					"inputs": [
						{
							"internalType": "address",
							"name": "",
							"type": "address"
						}
					],
					"name": "fundersToAmount",
					"outputs": [
						{
							"internalType": "uint256",
							"name": "",
							"type": "uint256"
						}
					],
					"stateMutability": "view",
					"type": "function"
				},
				{
					"inputs": [],
					"name": "getChainlinkDataFeedLatestAnswer",
					"outputs": [
						{
							"internalType": "int256",
							"name": "",
							"type": "int256"
						}
					],
					"stateMutability": "view",
					"type": "function"
				},
				{
					"inputs": [],
					"name": "getFund",
					"outputs": [],
					"stateMutability": "nonpayable",
					"type": "function"
				},
				{
					"inputs": [],
					"name": "reFund",
					"outputs": [],
					"stateMutability": "nonpayable",
					"type": "function"
				},
				{
					"inputs": [
						{
							"internalType": "address",
							"name": "newOwner",
							"type": "address"
						}
					],
					"name": "transferOwnership",
					"outputs": [],
					"stateMutability": "nonpayable",
					"type": "function"
				}
			],
			"devdoc": {
				"kind": "dev",
				"methods": {},
				"version": 1
			},
			"evm": {
				"assembly": "    /* \"toppo/FundMe.sol\":173:2760  contract FungMe {... */\n  mstore(0x40, 0x80)\n    /* \"toppo/FundMe.sol\":272:286  100 * 10 ** 18 */\n  0x056bc75e2d63100000\n    /* \"toppo/FundMe.sol\":252:286  uint256 MIN_VAULE = 100 * 10 ** 18 */\n  0x01\n  sstore\n    /* \"toppo/FundMe.sol\":460:711  constructor(uint256 _lockTime) {... */\n  callvalue\n  dup1\n  iszero\n  tag_1\n  jumpi\n  0x00\n  dup1\n  revert\ntag_1:\n  pop\n  mload(0x40)\n  sub(codesize, bytecodeSize)\n  dup1\n  bytecodeSize\n  dup4\n  codecopy\n  dup2\n  dup2\n  add\n  0x40\n  mstore\n  dup2\n  add\n  swap1\n  tag_2\n  swap2\n  swap1\n  tag_3\n  jump\t// in\ntag_2:\n    /* \"toppo/FundMe.sol\":547:589  0x694AA1769357215DE4FAC081bf1f309aDC325306 */\n  0x694aa1769357215de4fac081bf1f309adc325306\n    /* \"toppo/FundMe.sol\":501:509  dataFeed */\n  0x02\n  0x00\n    /* \"toppo/FundMe.sol\":501:599  dataFeed = AggregatorV3Interface(... */\n  0x0100\n  exp\n  dup2\n  sload\n  dup2\n  0xffffffffffffffffffffffffffffffffffffffff\n  mul\n  not\n  and\n  swap1\n  dup4\n  0xffffffffffffffffffffffffffffffffffffffff\n  and\n  mul\n  or\n  swap1\n  sstore\n  pop\n    /* \"toppo/FundMe.sol\":617:627  msg.sender */\n  caller\n    /* \"toppo/FundMe.sol\":609:614  owner */\n  0x03\n  0x00\n    /* \"toppo/FundMe.sol\":609:627  owner = msg.sender */\n  0x0100\n  exp\n  dup2\n  sload\n  dup2\n  0xffffffffffffffffffffffffffffffffffffffff\n  mul\n  not\n  and\n  swap1\n  dup4\n  0xffffffffffffffffffffffffffffffffffffffff\n  and\n  mul\n  or\n  swap1\n  sstore\n  pop\n    /* \"toppo/FundMe.sol\":659:674  block.timestamp */\n  timestamp\n    /* \"toppo/FundMe.sol\":637:656  deploymentTimestamp */\n  0x04\n    /* \"toppo/FundMe.sol\":637:674  deploymentTimestamp = block.timestamp */\n  dup2\n  swap1\n  sstore\n  pop\n    /* \"toppo/FundMe.sol\":695:704  _lockTime */\n  dup1\n    /* \"toppo/FundMe.sol\":684:692  lockTime */\n  0x05\n    /* \"toppo/FundMe.sol\":684:704  lockTime = _lockTime */\n  dup2\n  swap1\n  sstore\n  pop\n    /* \"toppo/FundMe.sol\":460:711  constructor(uint256 _lockTime) {... */\n  pop\n    /* \"toppo/FundMe.sol\":173:2760  contract FungMe {... */\n  jump(tag_6)\n    /* \"#utility.yul\":88:205   */\ntag_8:\n    /* \"#utility.yul\":197:198   */\n  0x00\n    /* \"#utility.yul\":194:195   */\n  dup1\n    /* \"#utility.yul\":187:199   */\n  revert\n    /* \"#utility.yul\":334:411   */\ntag_10:\n    /* \"#utility.yul\":371:378   */\n  0x00\n    /* \"#utility.yul\":400:405   */\n  dup2\n    /* \"#utility.yul\":389:405   */\n  swap1\n  pop\n    /* \"#utility.yul\":334:411   */\n  swap2\n  swap1\n  pop\n  jump\t// out\n    /* \"#utility.yul\":417:539   */\ntag_11:\n    /* \"#utility.yul\":490:514   */\n  tag_19\n    /* \"#utility.yul\":508:513   */\n  dup2\n    /* \"#utility.yul\":490:514   */\n  tag_10\n  jump\t// in\ntag_19:\n    /* \"#utility.yul\":483:488   */\n  dup2\n    /* \"#utility.yul\":480:515   */\n  eq\n    /* \"#utility.yul\":470:533   */\n  tag_20\n  jumpi\n    /* \"#utility.yul\":529:530   */\n  0x00\n    /* \"#utility.yul\":526:527   */\n  dup1\n    /* \"#utility.yul\":519:531   */\n  revert\n    /* \"#utility.yul\":470:533   */\ntag_20:\n    /* \"#utility.yul\":417:539   */\n  pop\n  jump\t// out\n    /* \"#utility.yul\":545:688   */\ntag_12:\n    /* \"#utility.yul\":602:607   */\n  0x00\n    /* \"#utility.yul\":633:639   */\n  dup2\n    /* \"#utility.yul\":627:640   */\n  mload\n    /* \"#utility.yul\":618:640   */\n  swap1\n  pop\n    /* \"#utility.yul\":649:682   */\n  tag_22\n    /* \"#utility.yul\":676:681   */\n  dup2\n    /* \"#utility.yul\":649:682   */\n  tag_11\n  jump\t// in\ntag_22:\n    /* \"#utility.yul\":545:688   */\n  swap3\n  swap2\n  pop\n  pop\n  jump\t// out\n    /* \"#utility.yul\":694:1045   */\ntag_3:\n    /* \"#utility.yul\":764:770   */\n  0x00\n    /* \"#utility.yul\":813:815   */\n  0x20\n    /* \"#utility.yul\":801:810   */\n  dup3\n    /* \"#utility.yul\":792:799   */\n  dup5\n    /* \"#utility.yul\":788:811   */\n  sub\n    /* \"#utility.yul\":784:816   */\n  slt\n    /* \"#utility.yul\":781:900   */\n  iszero\n  tag_24\n  jumpi\n    /* \"#utility.yul\":819:898   */\n  tag_25\n  tag_8\n  jump\t// in\ntag_25:\n    /* \"#utility.yul\":781:900   */\ntag_24:\n    /* \"#utility.yul\":939:940   */\n  0x00\n    /* \"#utility.yul\":964:1028   */\n  tag_26\n    /* \"#utility.yul\":1020:1027   */\n  dup5\n    /* \"#utility.yul\":1011:1017   */\n  dup3\n    /* \"#utility.yul\":1000:1009   */\n  dup6\n    /* \"#utility.yul\":996:1018   */\n  add\n    /* \"#utility.yul\":964:1028   */\n  tag_12\n  jump\t// in\ntag_26:\n    /* \"#utility.yul\":954:1028   */\n  swap2\n  pop\n    /* \"#utility.yul\":910:1038   */\n  pop\n    /* \"#utility.yul\":694:1045   */\n  swap3\n  swap2\n  pop\n  pop\n  jump\t// out\n    /* \"toppo/FundMe.sol\":173:2760  contract FungMe {... */\ntag_6:\n  dataSize(sub_0)\n  dup1\n  dataOffset(sub_0)\n  0x00\n  codecopy\n  0x00\n  return\nstop\n\nsub_0: assembly {\n        /* \"toppo/FundMe.sol\":173:2760  contract FungMe {... */\n      mstore(0x40, 0x80)\n      jumpi(tag_1, lt(calldatasize, 0x04))\n      shr(0xe0, calldataload(0x00))\n      dup1\n      0x0ff0a4df\n      eq\n      tag_2\n      jumpi\n      dup1\n      0x8edd6eb6\n      eq\n      tag_3\n      jumpi\n      dup1\n      0x9f883a05\n      eq\n      tag_4\n      jumpi\n      dup1\n      0xb60d4288\n      eq\n      tag_5\n      jumpi\n      dup1\n      0xbea4dfb5\n      eq\n      tag_6\n      jumpi\n      dup1\n      0xf2fde38b\n      eq\n      tag_7\n      jumpi\n    tag_1:\n      0x00\n      dup1\n      revert\n        /* \"toppo/FundMe.sol\":2257:2619  function reFund() external windowclosed {... */\n    tag_2:\n      callvalue\n      dup1\n      iszero\n      tag_8\n      jumpi\n      0x00\n      dup1\n      revert\n    tag_8:\n      pop\n      tag_9\n      tag_10\n      jump\t// in\n    tag_9:\n      stop\n        /* \"toppo/FundMe.sol\":1701:2251  function getFund() external windowclosed {... */\n    tag_3:\n      callvalue\n      dup1\n      iszero\n      tag_11\n      jumpi\n      0x00\n      dup1\n      revert\n    tag_11:\n      pop\n      tag_12\n      tag_13\n      jump\t// in\n    tag_12:\n      stop\n        /* \"toppo/FundMe.sol\":195:246  mapping (address => uint256) public fundersToAmount */\n    tag_4:\n      callvalue\n      dup1\n      iszero\n      tag_14\n      jumpi\n      0x00\n      dup1\n      revert\n    tag_14:\n      pop\n      tag_15\n      0x04\n      dup1\n      calldatasize\n      sub\n      dup2\n      add\n      swap1\n      tag_16\n      swap2\n      swap1\n      tag_17\n      jump\t// in\n    tag_16:\n      tag_18\n      jump\t// in\n    tag_15:\n      mload(0x40)\n      tag_19\n      swap2\n      swap1\n      tag_20\n      jump\t// in\n    tag_19:\n      mload(0x40)\n      dup1\n      swap2\n      sub\n      swap1\n      return\n        /* \"toppo/FundMe.sol\":717:968  function fund() external payable {... */\n    tag_5:\n      tag_21\n      tag_22\n      jump\t// in\n    tag_21:\n      stop\n        /* \"toppo/FundMe.sol\":973:1311  function getChainlinkDataFeedLatestAnswer() public view returns (int) {... */\n    tag_6:\n      callvalue\n      dup1\n      iszero\n      tag_23\n      jumpi\n      0x00\n      dup1\n      revert\n    tag_23:\n      pop\n      tag_24\n      tag_25\n      jump\t// in\n    tag_24:\n      mload(0x40)\n      tag_26\n      swap2\n      swap1\n      tag_27\n      jump\t// in\n    tag_26:\n      mload(0x40)\n      dup1\n      swap2\n      sub\n      swap1\n      return\n        /* \"toppo/FundMe.sol\":1527:1695  function transferOwnership(address newOwner) public {... */\n    tag_7:\n      callvalue\n      dup1\n      iszero\n      tag_28\n      jumpi\n      0x00\n      dup1\n      revert\n    tag_28:\n      pop\n      tag_29\n      0x04\n      dup1\n      calldatasize\n      sub\n      dup2\n      add\n      swap1\n      tag_30\n      swap2\n      swap1\n      tag_17\n      jump\t// in\n    tag_30:\n      tag_31\n      jump\t// in\n    tag_29:\n      stop\n        /* \"toppo/FundMe.sol\":2257:2619  function reFund() external windowclosed {... */\n    tag_10:\n        /* \"toppo/FundMe.sol\":2706:2714  lockTime */\n      sload(0x05)\n        /* \"toppo/FundMe.sol\":2684:2703  deploymentTimestamp */\n      sload(0x04)\n        /* \"toppo/FundMe.sol\":2684:2714  deploymentTimestamp + lockTime */\n      tag_33\n      swap2\n      swap1\n      tag_34\n      jump\t// in\n    tag_33:\n        /* \"toppo/FundMe.sol\":2665:2680  block.timestamp */\n      timestamp\n        /* \"toppo/FundMe.sol\":2665:2714  block.timestamp >= deploymentTimestamp + lockTime */\n      lt\n      iszero\n        /* \"toppo/FundMe.sol\":2657:2739  require(block.timestamp >= deploymentTimestamp + lockTime, \"window is not closed\") */\n      tag_35\n      jumpi\n      mload(0x40)\n      0x08c379a000000000000000000000000000000000000000000000000000000000\n      dup2\n      mstore\n      0x04\n      add\n      tag_36\n      swap1\n      tag_37\n      jump\t// in\n    tag_36:\n      mload(0x40)\n      dup1\n      swap2\n      sub\n      swap1\n      revert\n    tag_35:\n        /* \"toppo/FundMe.sol\":364:379  1000 * 10 ** 18 */\n      0x3635c9adc5dea00000\n        /* \"toppo/FundMe.sol\":2315:2353  convertEthToUSD(address(this).balance) */\n      tag_39\n        /* \"toppo/FundMe.sol\":2331:2352  address(this).balance */\n      selfbalance\n        /* \"toppo/FundMe.sol\":2315:2330  convertEthToUSD */\n      tag_40\n        /* \"toppo/FundMe.sol\":2315:2353  convertEthToUSD(address(this).balance) */\n      jump\t// in\n    tag_39:\n        /* \"toppo/FundMe.sol\":2315:2362  convertEthToUSD(address(this).balance) < TARGET */\n      lt\n        /* \"toppo/FundMe.sol\":2307:2384  require(convertEthToUSD(address(this).balance) < TARGET, \"TARGET is reached\") */\n      tag_41\n      jumpi\n      mload(0x40)\n      0x08c379a000000000000000000000000000000000000000000000000000000000\n      dup2\n      mstore\n      0x04\n      add\n      tag_42\n      swap1\n      tag_43\n      jump\t// in\n    tag_42:\n      mload(0x40)\n      dup1\n      swap2\n      sub\n      swap1\n      revert\n    tag_41:\n        /* \"toppo/FundMe.sol\":2433:2434  0 */\n      0x00\n        /* \"toppo/FundMe.sol\":2402:2417  fundersToAmount */\n      dup1\n        /* \"toppo/FundMe.sol\":2402:2429  fundersToAmount[msg.sender] */\n      0x00\n        /* \"toppo/FundMe.sol\":2418:2428  msg.sender */\n      caller\n        /* \"toppo/FundMe.sol\":2402:2429  fundersToAmount[msg.sender] */\n      0xffffffffffffffffffffffffffffffffffffffff\n      and\n      0xffffffffffffffffffffffffffffffffffffffff\n      and\n      dup2\n      mstore\n      0x20\n      add\n      swap1\n      dup2\n      mstore\n      0x20\n      add\n      0x00\n      keccak256\n      sload\n        /* \"toppo/FundMe.sol\":2402:2434  fundersToAmount[msg.sender] != 0 */\n      sub\n        /* \"toppo/FundMe.sol\":2394:2463  require(fundersToAmount[msg.sender] != 0, \"there is no fund for you\") */\n      tag_44\n      jumpi\n      mload(0x40)\n      0x08c379a000000000000000000000000000000000000000000000000000000000\n      dup2\n      mstore\n      0x04\n      add\n      tag_45\n      swap1\n      tag_46\n      jump\t// in\n    tag_45:\n      mload(0x40)\n      dup1\n      swap2\n      sub\n      swap1\n      revert\n    tag_44:\n        /* \"toppo/FundMe.sol\":2473:2484  bool result */\n      0x00\n        /* \"toppo/FundMe.sol\":2515:2525  msg.sender */\n      caller\n        /* \"toppo/FundMe.sol\":2507:2531  payable(msg.sender).call */\n      0xffffffffffffffffffffffffffffffffffffffff\n      and\n        /* \"toppo/FundMe.sol\":2539:2554  fundersToAmount */\n      0x00\n        /* \"toppo/FundMe.sol\":2539:2566  fundersToAmount[msg.sender] */\n      dup1\n        /* \"toppo/FundMe.sol\":2555:2565  msg.sender */\n      caller\n        /* \"toppo/FundMe.sol\":2539:2566  fundersToAmount[msg.sender] */\n      0xffffffffffffffffffffffffffffffffffffffff\n      and\n      0xffffffffffffffffffffffffffffffffffffffff\n      and\n      dup2\n      mstore\n      0x20\n      add\n      swap1\n      dup2\n      mstore\n      0x20\n      add\n      0x00\n      keccak256\n      sload\n        /* \"toppo/FundMe.sol\":2507:2571  payable(msg.sender).call{value: fundersToAmount[msg.sender]}(\"\") */\n      mload(0x40)\n      tag_47\n      swap1\n      tag_48\n      jump\t// in\n    tag_47:\n      0x00\n      mload(0x40)\n      dup1\n      dup4\n      sub\n      dup2\n      dup6\n      dup8\n      gas\n      call\n      swap3\n      pop\n      pop\n      pop\n      returndatasize\n      dup1\n      0x00\n      dup2\n      eq\n      tag_51\n      jumpi\n      mload(0x40)\n      swap2\n      pop\n      and(add(returndatasize, 0x3f), not(0x1f))\n      dup3\n      add\n      0x40\n      mstore\n      returndatasize\n      dup3\n      mstore\n      returndatasize\n      0x00\n      0x20\n      dup5\n      add\n      returndatacopy\n      jump(tag_50)\n    tag_51:\n      0x60\n      swap2\n      pop\n    tag_50:\n      pop\n        /* \"toppo/FundMe.sol\":2494:2571  (result, ) = payable(msg.sender).call{value: fundersToAmount[msg.sender]}(\"\") */\n      pop\n      dup1\n      swap2\n      pop\n      pop\n        /* \"toppo/FundMe.sol\":2611:2612  0 */\n      0x00\n        /* \"toppo/FundMe.sol\":2581:2596  fundersToAmount */\n      dup1\n        /* \"toppo/FundMe.sol\":2581:2608  fundersToAmount[msg.sender] */\n      0x00\n        /* \"toppo/FundMe.sol\":2597:2607  msg.sender */\n      caller\n        /* \"toppo/FundMe.sol\":2581:2608  fundersToAmount[msg.sender] */\n      0xffffffffffffffffffffffffffffffffffffffff\n      and\n      0xffffffffffffffffffffffffffffffffffffffff\n      and\n      dup2\n      mstore\n      0x20\n      add\n      swap1\n      dup2\n      mstore\n      0x20\n      add\n      0x00\n      keccak256\n      sload\n        /* \"toppo/FundMe.sol\":2581:2612  fundersToAmount[msg.sender] - 0 */\n      tag_52\n      swap2\n      swap1\n      tag_53\n      jump\t// in\n    tag_52:\n      pop\n        /* \"toppo/FundMe.sol\":2297:2619  {... */\n      pop\n        /* \"toppo/FundMe.sol\":2257:2619  function reFund() external windowclosed {... */\n      jump\t// out\n        /* \"toppo/FundMe.sol\":1701:2251  function getFund() external windowclosed {... */\n    tag_13:\n        /* \"toppo/FundMe.sol\":2706:2714  lockTime */\n      sload(0x05)\n        /* \"toppo/FundMe.sol\":2684:2703  deploymentTimestamp */\n      sload(0x04)\n        /* \"toppo/FundMe.sol\":2684:2714  deploymentTimestamp + lockTime */\n      tag_55\n      swap2\n      swap1\n      tag_34\n      jump\t// in\n    tag_55:\n        /* \"toppo/FundMe.sol\":2665:2680  block.timestamp */\n      timestamp\n        /* \"toppo/FundMe.sol\":2665:2714  block.timestamp >= deploymentTimestamp + lockTime */\n      lt\n      iszero\n        /* \"toppo/FundMe.sol\":2657:2739  require(block.timestamp >= deploymentTimestamp + lockTime, \"window is not closed\") */\n      tag_56\n      jumpi\n      mload(0x40)\n      0x08c379a000000000000000000000000000000000000000000000000000000000\n      dup2\n      mstore\n      0x04\n      add\n      tag_57\n      swap1\n      tag_37\n      jump\t// in\n    tag_57:\n      mload(0x40)\n      dup1\n      swap2\n      sub\n      swap1\n      revert\n    tag_56:\n        /* \"toppo/FundMe.sol\":1774:1779  owner */\n      0x03\n      0x00\n      swap1\n      sload\n      swap1\n      0x0100\n      exp\n      swap1\n      div\n      0xffffffffffffffffffffffffffffffffffffffff\n      and\n        /* \"toppo/FundMe.sol\":1760:1779  msg.sender == owner */\n      0xffffffffffffffffffffffffffffffffffffffff\n      and\n        /* \"toppo/FundMe.sol\":1760:1770  msg.sender */\n      caller\n        /* \"toppo/FundMe.sol\":1760:1779  msg.sender == owner */\n      0xffffffffffffffffffffffffffffffffffffffff\n      and\n      eq\n        /* \"toppo/FundMe.sol\":1752:1825  require(msg.sender == owner, \"this function can only be called by owner\") */\n      tag_59\n      jumpi\n      mload(0x40)\n      0x08c379a000000000000000000000000000000000000000000000000000000000\n      dup2\n      mstore\n      0x04\n      add\n      tag_60\n      swap1\n      tag_61\n      jump\t// in\n    tag_60:\n      mload(0x40)\n      dup1\n      swap2\n      sub\n      swap1\n      revert\n    tag_59:\n        /* \"toppo/FundMe.sol\":364:379  1000 * 10 ** 18 */\n      0x3635c9adc5dea00000\n        /* \"toppo/FundMe.sol\":1843:1881  convertEthToUSD(address(this).balance) */\n      tag_62\n        /* \"toppo/FundMe.sol\":1859:1880  address(this).balance */\n      selfbalance\n        /* \"toppo/FundMe.sol\":1843:1858  convertEthToUSD */\n      tag_40\n        /* \"toppo/FundMe.sol\":1843:1881  convertEthToUSD(address(this).balance) */\n      jump\t// in\n    tag_62:\n        /* \"toppo/FundMe.sol\":1843:1891  convertEthToUSD(address(this).balance) >= TARGET */\n      lt\n      iszero\n        /* \"toppo/FundMe.sol\":1835:1917  require(convertEthToUSD(address(this).balance) >= TARGET, \"TARGET is not reached\") */\n      tag_63\n      jumpi\n      mload(0x40)\n      0x08c379a000000000000000000000000000000000000000000000000000000000\n      dup2\n      mstore\n      0x04\n      add\n      tag_64\n      swap1\n      tag_65\n      jump\t// in\n    tag_64:\n      mload(0x40)\n      dup1\n      swap2\n      sub\n      swap1\n      revert\n    tag_63:\n        /* \"toppo/FundMe.sol\":2152:2163  bool result */\n      0x00\n        /* \"toppo/FundMe.sol\":2194:2204  msg.sender */\n      caller\n        /* \"toppo/FundMe.sol\":2186:2210  payable(msg.sender).call */\n      0xffffffffffffffffffffffffffffffffffffffff\n      and\n        /* \"toppo/FundMe.sol\":2218:2239  address(this).balance */\n      selfbalance\n        /* \"toppo/FundMe.sol\":2186:2244  payable(msg.sender).call{value: address(this).balance}(\"\") */\n      mload(0x40)\n      tag_66\n      swap1\n      tag_48\n      jump\t// in\n    tag_66:\n      0x00\n      mload(0x40)\n      dup1\n      dup4\n      sub\n      dup2\n      dup6\n      dup8\n      gas\n      call\n      swap3\n      pop\n      pop\n      pop\n      returndatasize\n      dup1\n      0x00\n      dup2\n      eq\n      tag_69\n      jumpi\n      mload(0x40)\n      swap2\n      pop\n      and(add(returndatasize, 0x3f), not(0x1f))\n      dup3\n      add\n      0x40\n      mstore\n      returndatasize\n      dup3\n      mstore\n      returndatasize\n      0x00\n      0x20\n      dup5\n      add\n      returndatacopy\n      jump(tag_68)\n    tag_69:\n      0x60\n      swap2\n      pop\n    tag_68:\n      pop\n        /* \"toppo/FundMe.sol\":2173:2244  (result, ) = payable(msg.sender).call{value: address(this).balance}(\"\") */\n      pop\n      dup1\n      swap2\n      pop\n      pop\n        /* \"toppo/FundMe.sol\":1742:2251  {... */\n      pop\n        /* \"toppo/FundMe.sol\":1701:2251  function getFund() external windowclosed {... */\n      jump\t// out\n        /* \"toppo/FundMe.sol\":195:246  mapping (address => uint256) public fundersToAmount */\n    tag_18:\n      mstore(0x20, 0x00)\n      dup1\n      0x00\n      mstore\n      keccak256(0x00, 0x40)\n      0x00\n      swap2\n      pop\n      swap1\n      pop\n      sload\n      dup2\n      jump\t// out\n        /* \"toppo/FundMe.sol\":717:968  function fund() external payable {... */\n    tag_22:\n        /* \"toppo/FundMe.sol\":798:807  MIN_VAULE */\n      sload(0x01)\n        /* \"toppo/FundMe.sol\":768:794  convertEthToUSD(msg.value) */\n      tag_71\n        /* \"toppo/FundMe.sol\":784:793  msg.value */\n      callvalue\n        /* \"toppo/FundMe.sol\":768:783  convertEthToUSD */\n      tag_40\n        /* \"toppo/FundMe.sol\":768:794  convertEthToUSD(msg.value) */\n      jump\t// in\n    tag_71:\n        /* \"toppo/FundMe.sol\":768:807  convertEthToUSD(msg.value) >= MIN_VAULE */\n      lt\n      iszero\n        /* \"toppo/FundMe.sol\":760:825  require(convertEthToUSD(msg.value) >= MIN_VAULE, \"send more ETH\") */\n      tag_72\n      jumpi\n      mload(0x40)\n      0x08c379a000000000000000000000000000000000000000000000000000000000\n      dup2\n      mstore\n      0x04\n      add\n      tag_73\n      swap1\n      tag_74\n      jump\t// in\n    tag_73:\n      mload(0x40)\n      dup1\n      swap2\n      sub\n      swap1\n      revert\n    tag_72:\n        /* \"toppo/FundMe.sol\":883:891  lockTime */\n      sload(0x05)\n        /* \"toppo/FundMe.sol\":861:880  deploymentTimestamp */\n      sload(0x04)\n        /* \"toppo/FundMe.sol\":861:891  deploymentTimestamp + lockTime */\n      tag_75\n      swap2\n      swap1\n      tag_34\n      jump\t// in\n    tag_75:\n        /* \"toppo/FundMe.sol\":843:858  block.timestamp */\n      timestamp\n        /* \"toppo/FundMe.sol\":843:891  block.timestamp < deploymentTimestamp + lockTime */\n      lt\n        /* \"toppo/FundMe.sol\":835:912  require(block.timestamp < deploymentTimestamp + lockTime, \"window is closed\") */\n      tag_76\n      jumpi\n      mload(0x40)\n      0x08c379a000000000000000000000000000000000000000000000000000000000\n      dup2\n      mstore\n      0x04\n      add\n      tag_77\n      swap1\n      tag_78\n      jump\t// in\n    tag_77:\n      mload(0x40)\n      dup1\n      swap2\n      sub\n      swap1\n      revert\n    tag_76:\n        /* \"toppo/FundMe.sol\":952:961  msg.value */\n      callvalue\n        /* \"toppo/FundMe.sol\":922:937  fundersToAmount */\n      0x00\n        /* \"toppo/FundMe.sol\":922:949  fundersToAmount[msg.sender] */\n      dup1\n        /* \"toppo/FundMe.sol\":938:948  msg.sender */\n      caller\n        /* \"toppo/FundMe.sol\":922:949  fundersToAmount[msg.sender] */\n      0xffffffffffffffffffffffffffffffffffffffff\n      and\n      0xffffffffffffffffffffffffffffffffffffffff\n      and\n      dup2\n      mstore\n      0x20\n      add\n      swap1\n      dup2\n      mstore\n      0x20\n      add\n      0x00\n      keccak256\n        /* \"toppo/FundMe.sol\":922:961  fundersToAmount[msg.sender] = msg.value */\n      dup2\n      swap1\n      sstore\n      pop\n        /* \"toppo/FundMe.sol\":717:968  function fund() external payable {... */\n      jump\t// out\n        /* \"toppo/FundMe.sol\":973:1311  function getChainlinkDataFeedLatestAnswer() public view returns (int) {... */\n    tag_25:\n        /* \"toppo/FundMe.sol\":1038:1041  int */\n      0x00\n        /* \"toppo/FundMe.sol\":1128:1138  int answer */\n      dup1\n        /* \"toppo/FundMe.sol\":1255:1263  dataFeed */\n      0x02\n      0x00\n      swap1\n      sload\n      swap1\n      0x0100\n      exp\n      swap1\n      div\n      0xffffffffffffffffffffffffffffffffffffffff\n      and\n        /* \"toppo/FundMe.sol\":1255:1279  dataFeed.latestRoundData */\n      0xffffffffffffffffffffffffffffffffffffffff\n      and\n      0xfeaf968c\n        /* \"toppo/FundMe.sol\":1255:1281  dataFeed.latestRoundData() */\n      mload(0x40)\n      dup2\n      0xffffffff\n      and\n      0xe0\n      shl\n      dup2\n      mstore\n      0x04\n      add\n      0xa0\n      mload(0x40)\n      dup1\n      dup4\n      sub\n      dup2\n      dup7\n      gas\n      staticcall\n      iszero\n      dup1\n      iszero\n      tag_81\n      jumpi\n      returndatasize\n      0x00\n      dup1\n      returndatacopy\n      revert(0x00, returndatasize)\n    tag_81:\n      pop\n      pop\n      pop\n      pop\n      mload(0x40)\n      returndatasize\n      not(0x1f)\n      0x1f\n      dup3\n      add\n      and\n      dup3\n      add\n      dup1\n      0x40\n      mstore\n      pop\n      dup2\n      add\n      swap1\n      tag_82\n      swap2\n      swap1\n      tag_83\n      jump\t// in\n    tag_82:\n        /* \"toppo/FundMe.sol\":1080:1281  (... */\n      pop\n      pop\n      pop\n      swap2\n      pop\n      pop\n        /* \"toppo/FundMe.sol\":1298:1304  answer */\n      dup1\n        /* \"toppo/FundMe.sol\":1291:1304  return answer */\n      swap2\n      pop\n      pop\n        /* \"toppo/FundMe.sol\":973:1311  function getChainlinkDataFeedLatestAnswer() public view returns (int) {... */\n      swap1\n      jump\t// out\n        /* \"toppo/FundMe.sol\":1527:1695  function transferOwnership(address newOwner) public {... */\n    tag_31:\n        /* \"toppo/FundMe.sol\":1611:1616  owner */\n      0x03\n      0x00\n      swap1\n      sload\n      swap1\n      0x0100\n      exp\n      swap1\n      div\n      0xffffffffffffffffffffffffffffffffffffffff\n      and\n        /* \"toppo/FundMe.sol\":1597:1616  msg.sender == owner */\n      0xffffffffffffffffffffffffffffffffffffffff\n      and\n        /* \"toppo/FundMe.sol\":1597:1607  msg.sender */\n      caller\n        /* \"toppo/FundMe.sol\":1597:1616  msg.sender == owner */\n      0xffffffffffffffffffffffffffffffffffffffff\n      and\n      eq\n        /* \"toppo/FundMe.sol\":1589:1662  require(msg.sender == owner, \"this function can only be called by owner\") */\n      tag_85\n      jumpi\n      mload(0x40)\n      0x08c379a000000000000000000000000000000000000000000000000000000000\n      dup2\n      mstore\n      0x04\n      add\n      tag_86\n      swap1\n      tag_61\n      jump\t// in\n    tag_86:\n      mload(0x40)\n      dup1\n      swap2\n      sub\n      swap1\n      revert\n    tag_85:\n        /* \"toppo/FundMe.sol\":1680:1688  newOwner */\n      dup1\n        /* \"toppo/FundMe.sol\":1672:1677  owner */\n      0x03\n      0x00\n        /* \"toppo/FundMe.sol\":1672:1688  owner = newOwner */\n      0x0100\n      exp\n      dup2\n      sload\n      dup2\n      0xffffffffffffffffffffffffffffffffffffffff\n      mul\n      not\n      and\n      swap1\n      dup4\n      0xffffffffffffffffffffffffffffffffffffffff\n      and\n      mul\n      or\n      swap1\n      sstore\n      pop\n        /* \"toppo/FundMe.sol\":1527:1695  function transferOwnership(address newOwner) public {... */\n      pop\n      jump\t// out\n        /* \"toppo/FundMe.sol\":1317:1521  function convertEthToUSD(uint256 ethAmount) internal  view returns (uint256){... */\n    tag_40:\n        /* \"toppo/FundMe.sol\":1385:1392  uint256 */\n      0x00\n        /* \"toppo/FundMe.sol\":1403:1419  uint256 ethPrice */\n      dup1\n        /* \"toppo/FundMe.sol\":1430:1464  getChainlinkDataFeedLatestAnswer() */\n      tag_88\n        /* \"toppo/FundMe.sol\":1430:1462  getChainlinkDataFeedLatestAnswer */\n      tag_25\n        /* \"toppo/FundMe.sol\":1430:1464  getChainlinkDataFeedLatestAnswer() */\n      jump\t// in\n    tag_88:\n        /* \"toppo/FundMe.sol\":1403:1465  uint256 ethPrice = uint256(getChainlinkDataFeedLatestAnswer()) */\n      swap1\n      pop\n        /* \"toppo/FundMe.sol\":1506:1513  10 ** 8 */\n      0x05f5e100\n        /* \"toppo/FundMe.sol\":1494:1502  ethPrice */\n      dup2\n        /* \"toppo/FundMe.sol\":1482:1491  ethAmount */\n      dup5\n        /* \"toppo/FundMe.sol\":1482:1502  ethAmount * ethPrice */\n      tag_89\n      swap2\n      swap1\n      tag_90\n      jump\t// in\n    tag_89:\n        /* \"toppo/FundMe.sol\":1482:1514  ethAmount * ethPrice / (10 ** 8) */\n      tag_91\n      swap2\n      swap1\n      tag_92\n      jump\t// in\n    tag_91:\n        /* \"toppo/FundMe.sol\":1475:1514  return ethAmount * ethPrice / (10 ** 8) */\n      swap2\n      pop\n      pop\n        /* \"toppo/FundMe.sol\":1317:1521  function convertEthToUSD(uint256 ethAmount) internal  view returns (uint256){... */\n      swap2\n      swap1\n      pop\n      jump\t// out\n        /* \"#utility.yul\":88:205   */\n    tag_94:\n        /* \"#utility.yul\":197:198   */\n      0x00\n        /* \"#utility.yul\":194:195   */\n      dup1\n        /* \"#utility.yul\":187:199   */\n      revert\n        /* \"#utility.yul\":334:460   */\n    tag_96:\n        /* \"#utility.yul\":371:378   */\n      0x00\n        /* \"#utility.yul\":411:453   */\n      0xffffffffffffffffffffffffffffffffffffffff\n        /* \"#utility.yul\":404:409   */\n      dup3\n        /* \"#utility.yul\":400:454   */\n      and\n        /* \"#utility.yul\":389:454   */\n      swap1\n      pop\n        /* \"#utility.yul\":334:460   */\n      swap2\n      swap1\n      pop\n      jump\t// out\n        /* \"#utility.yul\":466:562   */\n    tag_97:\n        /* \"#utility.yul\":503:510   */\n      0x00\n        /* \"#utility.yul\":532:556   */\n      tag_137\n        /* \"#utility.yul\":550:555   */\n      dup3\n        /* \"#utility.yul\":532:556   */\n      tag_96\n      jump\t// in\n    tag_137:\n        /* \"#utility.yul\":521:556   */\n      swap1\n      pop\n        /* \"#utility.yul\":466:562   */\n      swap2\n      swap1\n      pop\n      jump\t// out\n        /* \"#utility.yul\":568:690   */\n    tag_98:\n        /* \"#utility.yul\":641:665   */\n      tag_139\n        /* \"#utility.yul\":659:664   */\n      dup2\n        /* \"#utility.yul\":641:665   */\n      tag_97\n      jump\t// in\n    tag_139:\n        /* \"#utility.yul\":634:639   */\n      dup2\n        /* \"#utility.yul\":631:666   */\n      eq\n        /* \"#utility.yul\":621:684   */\n      tag_140\n      jumpi\n        /* \"#utility.yul\":680:681   */\n      0x00\n        /* \"#utility.yul\":677:678   */\n      dup1\n        /* \"#utility.yul\":670:682   */\n      revert\n        /* \"#utility.yul\":621:684   */\n    tag_140:\n        /* \"#utility.yul\":568:690   */\n      pop\n      jump\t// out\n        /* \"#utility.yul\":696:835   */\n    tag_99:\n        /* \"#utility.yul\":742:747   */\n      0x00\n        /* \"#utility.yul\":780:786   */\n      dup2\n        /* \"#utility.yul\":767:787   */\n      calldataload\n        /* \"#utility.yul\":758:787   */\n      swap1\n      pop\n        /* \"#utility.yul\":796:829   */\n      tag_142\n        /* \"#utility.yul\":823:828   */\n      dup2\n        /* \"#utility.yul\":796:829   */\n      tag_98\n      jump\t// in\n    tag_142:\n        /* \"#utility.yul\":696:835   */\n      swap3\n      swap2\n      pop\n      pop\n      jump\t// out\n        /* \"#utility.yul\":841:1170   */\n    tag_17:\n        /* \"#utility.yul\":900:906   */\n      0x00\n        /* \"#utility.yul\":949:951   */\n      0x20\n        /* \"#utility.yul\":937:946   */\n      dup3\n        /* \"#utility.yul\":928:935   */\n      dup5\n        /* \"#utility.yul\":924:947   */\n      sub\n        /* \"#utility.yul\":920:952   */\n      slt\n        /* \"#utility.yul\":917:1036   */\n      iszero\n      tag_144\n      jumpi\n        /* \"#utility.yul\":955:1034   */\n      tag_145\n      tag_94\n      jump\t// in\n    tag_145:\n        /* \"#utility.yul\":917:1036   */\n    tag_144:\n        /* \"#utility.yul\":1075:1076   */\n      0x00\n        /* \"#utility.yul\":1100:1153   */\n      tag_146\n        /* \"#utility.yul\":1145:1152   */\n      dup5\n        /* \"#utility.yul\":1136:1142   */\n      dup3\n        /* \"#utility.yul\":1125:1134   */\n      dup6\n        /* \"#utility.yul\":1121:1143   */\n      add\n        /* \"#utility.yul\":1100:1153   */\n      tag_99\n      jump\t// in\n    tag_146:\n        /* \"#utility.yul\":1090:1153   */\n      swap2\n      pop\n        /* \"#utility.yul\":1046:1163   */\n      pop\n        /* \"#utility.yul\":841:1170   */\n      swap3\n      swap2\n      pop\n      pop\n      jump\t// out\n        /* \"#utility.yul\":1176:1253   */\n    tag_100:\n        /* \"#utility.yul\":1213:1220   */\n      0x00\n        /* \"#utility.yul\":1242:1247   */\n      dup2\n        /* \"#utility.yul\":1231:1247   */\n      swap1\n      pop\n        /* \"#utility.yul\":1176:1253   */\n      swap2\n      swap1\n      pop\n      jump\t// out\n        /* \"#utility.yul\":1259:1377   */\n    tag_101:\n        /* \"#utility.yul\":1346:1370   */\n      tag_149\n        /* \"#utility.yul\":1364:1369   */\n      dup2\n        /* \"#utility.yul\":1346:1370   */\n      tag_100\n      jump\t// in\n    tag_149:\n        /* \"#utility.yul\":1341:1344   */\n      dup3\n        /* \"#utility.yul\":1334:1371   */\n      mstore\n        /* \"#utility.yul\":1259:1377   */\n      pop\n      pop\n      jump\t// out\n        /* \"#utility.yul\":1383:1605   */\n    tag_20:\n        /* \"#utility.yul\":1476:1480   */\n      0x00\n        /* \"#utility.yul\":1514:1516   */\n      0x20\n        /* \"#utility.yul\":1503:1512   */\n      dup3\n        /* \"#utility.yul\":1499:1517   */\n      add\n        /* \"#utility.yul\":1491:1517   */\n      swap1\n      pop\n        /* \"#utility.yul\":1527:1598   */\n      tag_151\n        /* \"#utility.yul\":1595:1596   */\n      0x00\n        /* \"#utility.yul\":1584:1593   */\n      dup4\n        /* \"#utility.yul\":1580:1597   */\n      add\n        /* \"#utility.yul\":1571:1577   */\n      dup5\n        /* \"#utility.yul\":1527:1598   */\n      tag_101\n      jump\t// in\n    tag_151:\n        /* \"#utility.yul\":1383:1605   */\n      swap3\n      swap2\n      pop\n      pop\n      jump\t// out\n        /* \"#utility.yul\":1611:1687   */\n    tag_102:\n        /* \"#utility.yul\":1647:1654   */\n      0x00\n        /* \"#utility.yul\":1676:1681   */\n      dup2\n        /* \"#utility.yul\":1665:1681   */\n      swap1\n      pop\n        /* \"#utility.yul\":1611:1687   */\n      swap2\n      swap1\n      pop\n      jump\t// out\n        /* \"#utility.yul\":1693:1808   */\n    tag_103:\n        /* \"#utility.yul\":1778:1801   */\n      tag_154\n        /* \"#utility.yul\":1795:1800   */\n      dup2\n        /* \"#utility.yul\":1778:1801   */\n      tag_102\n      jump\t// in\n    tag_154:\n        /* \"#utility.yul\":1773:1776   */\n      dup3\n        /* \"#utility.yul\":1766:1802   */\n      mstore\n        /* \"#utility.yul\":1693:1808   */\n      pop\n      pop\n      jump\t// out\n        /* \"#utility.yul\":1814:2032   */\n    tag_27:\n        /* \"#utility.yul\":1905:1909   */\n      0x00\n        /* \"#utility.yul\":1943:1945   */\n      0x20\n        /* \"#utility.yul\":1932:1941   */\n      dup3\n        /* \"#utility.yul\":1928:1946   */\n      add\n        /* \"#utility.yul\":1920:1946   */\n      swap1\n      pop\n        /* \"#utility.yul\":1956:2025   */\n      tag_156\n        /* \"#utility.yul\":2022:2023   */\n      0x00\n        /* \"#utility.yul\":2011:2020   */\n      dup4\n        /* \"#utility.yul\":2007:2024   */\n      add\n        /* \"#utility.yul\":1998:2004   */\n      dup5\n        /* \"#utility.yul\":1956:2025   */\n      tag_103\n      jump\t// in\n    tag_156:\n        /* \"#utility.yul\":1814:2032   */\n      swap3\n      swap2\n      pop\n      pop\n      jump\t// out\n        /* \"#utility.yul\":2038:2218   */\n    tag_104:\n        /* \"#utility.yul\":2086:2163   */\n      0x4e487b7100000000000000000000000000000000000000000000000000000000\n        /* \"#utility.yul\":2083:2084   */\n      0x00\n        /* \"#utility.yul\":2076:2164   */\n      mstore\n        /* \"#utility.yul\":2183:2187   */\n      0x11\n        /* \"#utility.yul\":2180:2181   */\n      0x04\n        /* \"#utility.yul\":2173:2188   */\n      mstore\n        /* \"#utility.yul\":2207:2211   */\n      0x24\n        /* \"#utility.yul\":2204:2205   */\n      0x00\n        /* \"#utility.yul\":2197:2212   */\n      revert\n        /* \"#utility.yul\":2224:2415   */\n    tag_34:\n        /* \"#utility.yul\":2264:2267   */\n      0x00\n        /* \"#utility.yul\":2283:2303   */\n      tag_159\n        /* \"#utility.yul\":2301:2302   */\n      dup3\n        /* \"#utility.yul\":2283:2303   */\n      tag_100\n      jump\t// in\n    tag_159:\n        /* \"#utility.yul\":2278:2303   */\n      swap2\n      pop\n        /* \"#utility.yul\":2317:2337   */\n      tag_160\n        /* \"#utility.yul\":2335:2336   */\n      dup4\n        /* \"#utility.yul\":2317:2337   */\n      tag_100\n      jump\t// in\n    tag_160:\n        /* \"#utility.yul\":2312:2337   */\n      swap3\n      pop\n        /* \"#utility.yul\":2360:2361   */\n      dup3\n        /* \"#utility.yul\":2357:2358   */\n      dup3\n        /* \"#utility.yul\":2353:2362   */\n      add\n        /* \"#utility.yul\":2346:2362   */\n      swap1\n      pop\n        /* \"#utility.yul\":2381:2384   */\n      dup1\n        /* \"#utility.yul\":2378:2379   */\n      dup3\n        /* \"#utility.yul\":2375:2385   */\n      gt\n        /* \"#utility.yul\":2372:2408   */\n      iszero\n      tag_161\n      jumpi\n        /* \"#utility.yul\":2388:2406   */\n      tag_162\n      tag_104\n      jump\t// in\n    tag_162:\n        /* \"#utility.yul\":2372:2408   */\n    tag_161:\n        /* \"#utility.yul\":2224:2415   */\n      swap3\n      swap2\n      pop\n      pop\n      jump\t// out\n        /* \"#utility.yul\":2421:2590   */\n    tag_105:\n        /* \"#utility.yul\":2505:2516   */\n      0x00\n        /* \"#utility.yul\":2539:2545   */\n      dup3\n        /* \"#utility.yul\":2534:2537   */\n      dup3\n        /* \"#utility.yul\":2527:2546   */\n      mstore\n        /* \"#utility.yul\":2579:2583   */\n      0x20\n        /* \"#utility.yul\":2574:2577   */\n      dup3\n        /* \"#utility.yul\":2570:2584   */\n      add\n        /* \"#utility.yul\":2555:2584   */\n      swap1\n      pop\n        /* \"#utility.yul\":2421:2590   */\n      swap3\n      swap2\n      pop\n      pop\n      jump\t// out\n        /* \"#utility.yul\":2596:2766   */\n    tag_106:\n        /* \"#utility.yul\":2736:2758   */\n      0x77696e646f77206973206e6f7420636c6f736564000000000000000000000000\n        /* \"#utility.yul\":2732:2733   */\n      0x00\n        /* \"#utility.yul\":2724:2730   */\n      dup3\n        /* \"#utility.yul\":2720:2734   */\n      add\n        /* \"#utility.yul\":2713:2759   */\n      mstore\n        /* \"#utility.yul\":2596:2766   */\n      pop\n      jump\t// out\n        /* \"#utility.yul\":2772:3138   */\n    tag_107:\n        /* \"#utility.yul\":2914:2917   */\n      0x00\n        /* \"#utility.yul\":2935:3002   */\n      tag_166\n        /* \"#utility.yul\":2999:3001   */\n      0x14\n        /* \"#utility.yul\":2994:2997   */\n      dup4\n        /* \"#utility.yul\":2935:3002   */\n      tag_105\n      jump\t// in\n    tag_166:\n        /* \"#utility.yul\":2928:3002   */\n      swap2\n      pop\n        /* \"#utility.yul\":3011:3104   */\n      tag_167\n        /* \"#utility.yul\":3100:3103   */\n      dup3\n        /* \"#utility.yul\":3011:3104   */\n      tag_106\n      jump\t// in\n    tag_167:\n        /* \"#utility.yul\":3129:3131   */\n      0x20\n        /* \"#utility.yul\":3124:3127   */\n      dup3\n        /* \"#utility.yul\":3120:3132   */\n      add\n        /* \"#utility.yul\":3113:3132   */\n      swap1\n      pop\n        /* \"#utility.yul\":2772:3138   */\n      swap2\n      swap1\n      pop\n      jump\t// out\n        /* \"#utility.yul\":3144:3563   */\n    tag_37:\n        /* \"#utility.yul\":3310:3314   */\n      0x00\n        /* \"#utility.yul\":3348:3350   */\n      0x20\n        /* \"#utility.yul\":3337:3346   */\n      dup3\n        /* \"#utility.yul\":3333:3351   */\n      add\n        /* \"#utility.yul\":3325:3351   */\n      swap1\n      pop\n        /* \"#utility.yul\":3397:3406   */\n      dup2\n        /* \"#utility.yul\":3391:3395   */\n      dup2\n        /* \"#utility.yul\":3387:3407   */\n      sub\n        /* \"#utility.yul\":3383:3384   */\n      0x00\n        /* \"#utility.yul\":3372:3381   */\n      dup4\n        /* \"#utility.yul\":3368:3385   */\n      add\n        /* \"#utility.yul\":3361:3408   */\n      mstore\n        /* \"#utility.yul\":3425:3556   */\n      tag_169\n        /* \"#utility.yul\":3551:3555   */\n      dup2\n        /* \"#utility.yul\":3425:3556   */\n      tag_107\n      jump\t// in\n    tag_169:\n        /* \"#utility.yul\":3417:3556   */\n      swap1\n      pop\n        /* \"#utility.yul\":3144:3563   */\n      swap2\n      swap1\n      pop\n      jump\t// out\n        /* \"#utility.yul\":3569:3736   */\n    tag_108:\n        /* \"#utility.yul\":3709:3728   */\n      0x5441524745542069732072656163686564000000000000000000000000000000\n        /* \"#utility.yul\":3705:3706   */\n      0x00\n        /* \"#utility.yul\":3697:3703   */\n      dup3\n        /* \"#utility.yul\":3693:3707   */\n      add\n        /* \"#utility.yul\":3686:3729   */\n      mstore\n        /* \"#utility.yul\":3569:3736   */\n      pop\n      jump\t// out\n        /* \"#utility.yul\":3742:4108   */\n    tag_109:\n        /* \"#utility.yul\":3884:3887   */\n      0x00\n        /* \"#utility.yul\":3905:3972   */\n      tag_172\n        /* \"#utility.yul\":3969:3971   */\n      0x11\n        /* \"#utility.yul\":3964:3967   */\n      dup4\n        /* \"#utility.yul\":3905:3972   */\n      tag_105\n      jump\t// in\n    tag_172:\n        /* \"#utility.yul\":3898:3972   */\n      swap2\n      pop\n        /* \"#utility.yul\":3981:4074   */\n      tag_173\n        /* \"#utility.yul\":4070:4073   */\n      dup3\n        /* \"#utility.yul\":3981:4074   */\n      tag_108\n      jump\t// in\n    tag_173:\n        /* \"#utility.yul\":4099:4101   */\n      0x20\n        /* \"#utility.yul\":4094:4097   */\n      dup3\n        /* \"#utility.yul\":4090:4102   */\n      add\n        /* \"#utility.yul\":4083:4102   */\n      swap1\n      pop\n        /* \"#utility.yul\":3742:4108   */\n      swap2\n      swap1\n      pop\n      jump\t// out\n        /* \"#utility.yul\":4114:4533   */\n    tag_43:\n        /* \"#utility.yul\":4280:4284   */\n      0x00\n        /* \"#utility.yul\":4318:4320   */\n      0x20\n        /* \"#utility.yul\":4307:4316   */\n      dup3\n        /* \"#utility.yul\":4303:4321   */\n      add\n        /* \"#utility.yul\":4295:4321   */\n      swap1\n      pop\n        /* \"#utility.yul\":4367:4376   */\n      dup2\n        /* \"#utility.yul\":4361:4365   */\n      dup2\n        /* \"#utility.yul\":4357:4377   */\n      sub\n        /* \"#utility.yul\":4353:4354   */\n      0x00\n        /* \"#utility.yul\":4342:4351   */\n      dup4\n        /* \"#utility.yul\":4338:4355   */\n      add\n        /* \"#utility.yul\":4331:4378   */\n      mstore\n        /* \"#utility.yul\":4395:4526   */\n      tag_175\n        /* \"#utility.yul\":4521:4525   */\n      dup2\n        /* \"#utility.yul\":4395:4526   */\n      tag_109\n      jump\t// in\n    tag_175:\n        /* \"#utility.yul\":4387:4526   */\n      swap1\n      pop\n        /* \"#utility.yul\":4114:4533   */\n      swap2\n      swap1\n      pop\n      jump\t// out\n        /* \"#utility.yul\":4539:4713   */\n    tag_110:\n        /* \"#utility.yul\":4679:4705   */\n      0x7468657265206973206e6f2066756e6420666f7220796f750000000000000000\n        /* \"#utility.yul\":4675:4676   */\n      0x00\n        /* \"#utility.yul\":4667:4673   */\n      dup3\n        /* \"#utility.yul\":4663:4677   */\n      add\n        /* \"#utility.yul\":4656:4706   */\n      mstore\n        /* \"#utility.yul\":4539:4713   */\n      pop\n      jump\t// out\n        /* \"#utility.yul\":4719:5085   */\n    tag_111:\n        /* \"#utility.yul\":4861:4864   */\n      0x00\n        /* \"#utility.yul\":4882:4949   */\n      tag_178\n        /* \"#utility.yul\":4946:4948   */\n      0x18\n        /* \"#utility.yul\":4941:4944   */\n      dup4\n        /* \"#utility.yul\":4882:4949   */\n      tag_105\n      jump\t// in\n    tag_178:\n        /* \"#utility.yul\":4875:4949   */\n      swap2\n      pop\n        /* \"#utility.yul\":4958:5051   */\n      tag_179\n        /* \"#utility.yul\":5047:5050   */\n      dup3\n        /* \"#utility.yul\":4958:5051   */\n      tag_110\n      jump\t// in\n    tag_179:\n        /* \"#utility.yul\":5076:5078   */\n      0x20\n        /* \"#utility.yul\":5071:5074   */\n      dup3\n        /* \"#utility.yul\":5067:5079   */\n      add\n        /* \"#utility.yul\":5060:5079   */\n      swap1\n      pop\n        /* \"#utility.yul\":4719:5085   */\n      swap2\n      swap1\n      pop\n      jump\t// out\n        /* \"#utility.yul\":5091:5510   */\n    tag_46:\n        /* \"#utility.yul\":5257:5261   */\n      0x00\n        /* \"#utility.yul\":5295:5297   */\n      0x20\n        /* \"#utility.yul\":5284:5293   */\n      dup3\n        /* \"#utility.yul\":5280:5298   */\n      add\n        /* \"#utility.yul\":5272:5298   */\n      swap1\n      pop\n        /* \"#utility.yul\":5344:5353   */\n      dup2\n        /* \"#utility.yul\":5338:5342   */\n      dup2\n        /* \"#utility.yul\":5334:5354   */\n      sub\n        /* \"#utility.yul\":5330:5331   */\n      0x00\n        /* \"#utility.yul\":5319:5328   */\n      dup4\n        /* \"#utility.yul\":5315:5332   */\n      add\n        /* \"#utility.yul\":5308:5355   */\n      mstore\n        /* \"#utility.yul\":5372:5503   */\n      tag_181\n        /* \"#utility.yul\":5498:5502   */\n      dup2\n        /* \"#utility.yul\":5372:5503   */\n      tag_111\n      jump\t// in\n    tag_181:\n        /* \"#utility.yul\":5364:5503   */\n      swap1\n      pop\n        /* \"#utility.yul\":5091:5510   */\n      swap2\n      swap1\n      pop\n      jump\t// out\n        /* \"#utility.yul\":5516:5663   */\n    tag_112:\n        /* \"#utility.yul\":5617:5628   */\n      0x00\n        /* \"#utility.yul\":5654:5657   */\n      dup2\n        /* \"#utility.yul\":5639:5657   */\n      swap1\n      pop\n        /* \"#utility.yul\":5516:5663   */\n      swap3\n      swap2\n      pop\n      pop\n      jump\t// out\n        /* \"#utility.yul\":5669:5783   */\n    tag_113:\n      pop\n      jump\t// out\n        /* \"#utility.yul\":5789:6187   */\n    tag_114:\n        /* \"#utility.yul\":5948:5951   */\n      0x00\n        /* \"#utility.yul\":5969:6052   */\n      tag_185\n        /* \"#utility.yul\":6050:6051   */\n      0x00\n        /* \"#utility.yul\":6045:6048   */\n      dup4\n        /* \"#utility.yul\":5969:6052   */\n      tag_112\n      jump\t// in\n    tag_185:\n        /* \"#utility.yul\":5962:6052   */\n      swap2\n      pop\n        /* \"#utility.yul\":6061:6154   */\n      tag_186\n        /* \"#utility.yul\":6150:6153   */\n      dup3\n        /* \"#utility.yul\":6061:6154   */\n      tag_113\n      jump\t// in\n    tag_186:\n        /* \"#utility.yul\":6179:6180   */\n      0x00\n        /* \"#utility.yul\":6174:6177   */\n      dup3\n        /* \"#utility.yul\":6170:6181   */\n      add\n        /* \"#utility.yul\":6163:6181   */\n      swap1\n      pop\n        /* \"#utility.yul\":5789:6187   */\n      swap2\n      swap1\n      pop\n      jump\t// out\n        /* \"#utility.yul\":6193:6572   */\n    tag_48:\n        /* \"#utility.yul\":6377:6380   */\n      0x00\n        /* \"#utility.yul\":6399:6546   */\n      tag_188\n        /* \"#utility.yul\":6542:6545   */\n      dup3\n        /* \"#utility.yul\":6399:6546   */\n      tag_114\n      jump\t// in\n    tag_188:\n        /* \"#utility.yul\":6392:6546   */\n      swap2\n      pop\n        /* \"#utility.yul\":6563:6566   */\n      dup2\n        /* \"#utility.yul\":6556:6566   */\n      swap1\n      pop\n        /* \"#utility.yul\":6193:6572   */\n      swap2\n      swap1\n      pop\n      jump\t// out\n        /* \"#utility.yul\":6578:6772   */\n    tag_53:\n        /* \"#utility.yul\":6618:6622   */\n      0x00\n        /* \"#utility.yul\":6638:6658   */\n      tag_190\n        /* \"#utility.yul\":6656:6657   */\n      dup3\n        /* \"#utility.yul\":6638:6658   */\n      tag_100\n      jump\t// in\n    tag_190:\n        /* \"#utility.yul\":6633:6658   */\n      swap2\n      pop\n        /* \"#utility.yul\":6672:6692   */\n      tag_191\n        /* \"#utility.yul\":6690:6691   */\n      dup4\n        /* \"#utility.yul\":6672:6692   */\n      tag_100\n      jump\t// in\n    tag_191:\n        /* \"#utility.yul\":6667:6692   */\n      swap3\n      pop\n        /* \"#utility.yul\":6716:6717   */\n      dup3\n        /* \"#utility.yul\":6713:6714   */\n      dup3\n        /* \"#utility.yul\":6709:6718   */\n      sub\n        /* \"#utility.yul\":6701:6718   */\n      swap1\n      pop\n        /* \"#utility.yul\":6740:6741   */\n      dup2\n        /* \"#utility.yul\":6734:6738   */\n      dup2\n        /* \"#utility.yul\":6731:6742   */\n      gt\n        /* \"#utility.yul\":6728:6765   */\n      iszero\n      tag_192\n      jumpi\n        /* \"#utility.yul\":6745:6763   */\n      tag_193\n      tag_104\n      jump\t// in\n    tag_193:\n        /* \"#utility.yul\":6728:6765   */\n    tag_192:\n        /* \"#utility.yul\":6578:6772   */\n      swap3\n      swap2\n      pop\n      pop\n      jump\t// out\n        /* \"#utility.yul\":6778:7006   */\n    tag_115:\n        /* \"#utility.yul\":6918:6952   */\n      0x746869732066756e6374696f6e2063616e206f6e6c792062652063616c6c6564\n        /* \"#utility.yul\":6914:6915   */\n      0x00\n        /* \"#utility.yul\":6906:6912   */\n      dup3\n        /* \"#utility.yul\":6902:6916   */\n      add\n        /* \"#utility.yul\":6895:6953   */\n      mstore\n        /* \"#utility.yul\":6987:6998   */\n      0x206279206f776e65720000000000000000000000000000000000000000000000\n        /* \"#utility.yul\":6982:6984   */\n      0x20\n        /* \"#utility.yul\":6974:6980   */\n      dup3\n        /* \"#utility.yul\":6970:6985   */\n      add\n        /* \"#utility.yul\":6963:6999   */\n      mstore\n        /* \"#utility.yul\":6778:7006   */\n      pop\n      jump\t// out\n        /* \"#utility.yul\":7012:7378   */\n    tag_116:\n        /* \"#utility.yul\":7154:7157   */\n      0x00\n        /* \"#utility.yul\":7175:7242   */\n      tag_196\n        /* \"#utility.yul\":7239:7241   */\n      0x29\n        /* \"#utility.yul\":7234:7237   */\n      dup4\n        /* \"#utility.yul\":7175:7242   */\n      tag_105\n      jump\t// in\n    tag_196:\n        /* \"#utility.yul\":7168:7242   */\n      swap2\n      pop\n        /* \"#utility.yul\":7251:7344   */\n      tag_197\n        /* \"#utility.yul\":7340:7343   */\n      dup3\n        /* \"#utility.yul\":7251:7344   */\n      tag_115\n      jump\t// in\n    tag_197:\n        /* \"#utility.yul\":7369:7371   */\n      0x40\n        /* \"#utility.yul\":7364:7367   */\n      dup3\n        /* \"#utility.yul\":7360:7372   */\n      add\n        /* \"#utility.yul\":7353:7372   */\n      swap1\n      pop\n        /* \"#utility.yul\":7012:7378   */\n      swap2\n      swap1\n      pop\n      jump\t// out\n        /* \"#utility.yul\":7384:7803   */\n    tag_61:\n        /* \"#utility.yul\":7550:7554   */\n      0x00\n        /* \"#utility.yul\":7588:7590   */\n      0x20\n        /* \"#utility.yul\":7577:7586   */\n      dup3\n        /* \"#utility.yul\":7573:7591   */\n      add\n        /* \"#utility.yul\":7565:7591   */\n      swap1\n      pop\n        /* \"#utility.yul\":7637:7646   */\n      dup2\n        /* \"#utility.yul\":7631:7635   */\n      dup2\n        /* \"#utility.yul\":7627:7647   */\n      sub\n        /* \"#utility.yul\":7623:7624   */\n      0x00\n        /* \"#utility.yul\":7612:7621   */\n      dup4\n        /* \"#utility.yul\":7608:7625   */\n      add\n        /* \"#utility.yul\":7601:7648   */\n      mstore\n        /* \"#utility.yul\":7665:7796   */\n      tag_199\n        /* \"#utility.yul\":7791:7795   */\n      dup2\n        /* \"#utility.yul\":7665:7796   */\n      tag_116\n      jump\t// in\n    tag_199:\n        /* \"#utility.yul\":7657:7796   */\n      swap1\n      pop\n        /* \"#utility.yul\":7384:7803   */\n      swap2\n      swap1\n      pop\n      jump\t// out\n        /* \"#utility.yul\":7809:7980   */\n    tag_117:\n        /* \"#utility.yul\":7949:7972   */\n      0x544152474554206973206e6f7420726561636865640000000000000000000000\n        /* \"#utility.yul\":7945:7946   */\n      0x00\n        /* \"#utility.yul\":7937:7943   */\n      dup3\n        /* \"#utility.yul\":7933:7947   */\n      add\n        /* \"#utility.yul\":7926:7973   */\n      mstore\n        /* \"#utility.yul\":7809:7980   */\n      pop\n      jump\t// out\n        /* \"#utility.yul\":7986:8352   */\n    tag_118:\n        /* \"#utility.yul\":8128:8131   */\n      0x00\n        /* \"#utility.yul\":8149:8216   */\n      tag_202\n        /* \"#utility.yul\":8213:8215   */\n      0x15\n        /* \"#utility.yul\":8208:8211   */\n      dup4\n        /* \"#utility.yul\":8149:8216   */\n      tag_105\n      jump\t// in\n    tag_202:\n        /* \"#utility.yul\":8142:8216   */\n      swap2\n      pop\n        /* \"#utility.yul\":8225:8318   */\n      tag_203\n        /* \"#utility.yul\":8314:8317   */\n      dup3\n        /* \"#utility.yul\":8225:8318   */\n      tag_117\n      jump\t// in\n    tag_203:\n        /* \"#utility.yul\":8343:8345   */\n      0x20\n        /* \"#utility.yul\":8338:8341   */\n      dup3\n        /* \"#utility.yul\":8334:8346   */\n      add\n        /* \"#utility.yul\":8327:8346   */\n      swap1\n      pop\n        /* \"#utility.yul\":7986:8352   */\n      swap2\n      swap1\n      pop\n      jump\t// out\n        /* \"#utility.yul\":8358:8777   */\n    tag_65:\n        /* \"#utility.yul\":8524:8528   */\n      0x00\n        /* \"#utility.yul\":8562:8564   */\n      0x20\n        /* \"#utility.yul\":8551:8560   */\n      dup3\n        /* \"#utility.yul\":8547:8565   */\n      add\n        /* \"#utility.yul\":8539:8565   */\n      swap1\n      pop\n        /* \"#utility.yul\":8611:8620   */\n      dup2\n        /* \"#utility.yul\":8605:8609   */\n      dup2\n        /* \"#utility.yul\":8601:8621   */\n      sub\n        /* \"#utility.yul\":8597:8598   */\n      0x00\n        /* \"#utility.yul\":8586:8595   */\n      dup4\n        /* \"#utility.yul\":8582:8599   */\n      add\n        /* \"#utility.yul\":8575:8622   */\n      mstore\n        /* \"#utility.yul\":8639:8770   */\n      tag_205\n        /* \"#utility.yul\":8765:8769   */\n      dup2\n        /* \"#utility.yul\":8639:8770   */\n      tag_118\n      jump\t// in\n    tag_205:\n        /* \"#utility.yul\":8631:8770   */\n      swap1\n      pop\n        /* \"#utility.yul\":8358:8777   */\n      swap2\n      swap1\n      pop\n      jump\t// out\n        /* \"#utility.yul\":8783:8946   */\n    tag_119:\n        /* \"#utility.yul\":8923:8938   */\n      0x73656e64206d6f72652045544800000000000000000000000000000000000000\n        /* \"#utility.yul\":8919:8920   */\n      0x00\n        /* \"#utility.yul\":8911:8917   */\n      dup3\n        /* \"#utility.yul\":8907:8921   */\n      add\n        /* \"#utility.yul\":8900:8939   */\n      mstore\n        /* \"#utility.yul\":8783:8946   */\n      pop\n      jump\t// out\n        /* \"#utility.yul\":8952:9318   */\n    tag_120:\n        /* \"#utility.yul\":9094:9097   */\n      0x00\n        /* \"#utility.yul\":9115:9182   */\n      tag_208\n        /* \"#utility.yul\":9179:9181   */\n      0x0d\n        /* \"#utility.yul\":9174:9177   */\n      dup4\n        /* \"#utility.yul\":9115:9182   */\n      tag_105\n      jump\t// in\n    tag_208:\n        /* \"#utility.yul\":9108:9182   */\n      swap2\n      pop\n        /* \"#utility.yul\":9191:9284   */\n      tag_209\n        /* \"#utility.yul\":9280:9283   */\n      dup3\n        /* \"#utility.yul\":9191:9284   */\n      tag_119\n      jump\t// in\n    tag_209:\n        /* \"#utility.yul\":9309:9311   */\n      0x20\n        /* \"#utility.yul\":9304:9307   */\n      dup3\n        /* \"#utility.yul\":9300:9312   */\n      add\n        /* \"#utility.yul\":9293:9312   */\n      swap1\n      pop\n        /* \"#utility.yul\":8952:9318   */\n      swap2\n      swap1\n      pop\n      jump\t// out\n        /* \"#utility.yul\":9324:9743   */\n    tag_74:\n        /* \"#utility.yul\":9490:9494   */\n      0x00\n        /* \"#utility.yul\":9528:9530   */\n      0x20\n        /* \"#utility.yul\":9517:9526   */\n      dup3\n        /* \"#utility.yul\":9513:9531   */\n      add\n        /* \"#utility.yul\":9505:9531   */\n      swap1\n      pop\n        /* \"#utility.yul\":9577:9586   */\n      dup2\n        /* \"#utility.yul\":9571:9575   */\n      dup2\n        /* \"#utility.yul\":9567:9587   */\n      sub\n        /* \"#utility.yul\":9563:9564   */\n      0x00\n        /* \"#utility.yul\":9552:9561   */\n      dup4\n        /* \"#utility.yul\":9548:9565   */\n      add\n        /* \"#utility.yul\":9541:9588   */\n      mstore\n        /* \"#utility.yul\":9605:9736   */\n      tag_211\n        /* \"#utility.yul\":9731:9735   */\n      dup2\n        /* \"#utility.yul\":9605:9736   */\n      tag_120\n      jump\t// in\n    tag_211:\n        /* \"#utility.yul\":9597:9736   */\n      swap1\n      pop\n        /* \"#utility.yul\":9324:9743   */\n      swap2\n      swap1\n      pop\n      jump\t// out\n        /* \"#utility.yul\":9749:9915   */\n    tag_121:\n        /* \"#utility.yul\":9889:9907   */\n      0x77696e646f7720697320636c6f73656400000000000000000000000000000000\n        /* \"#utility.yul\":9885:9886   */\n      0x00\n        /* \"#utility.yul\":9877:9883   */\n      dup3\n        /* \"#utility.yul\":9873:9887   */\n      add\n        /* \"#utility.yul\":9866:9908   */\n      mstore\n        /* \"#utility.yul\":9749:9915   */\n      pop\n      jump\t// out\n        /* \"#utility.yul\":9921:10287   */\n    tag_122:\n        /* \"#utility.yul\":10063:10066   */\n      0x00\n        /* \"#utility.yul\":10084:10151   */\n      tag_214\n        /* \"#utility.yul\":10148:10150   */\n      0x10\n        /* \"#utility.yul\":10143:10146   */\n      dup4\n        /* \"#utility.yul\":10084:10151   */\n      tag_105\n      jump\t// in\n    tag_214:\n        /* \"#utility.yul\":10077:10151   */\n      swap2\n      pop\n        /* \"#utility.yul\":10160:10253   */\n      tag_215\n        /* \"#utility.yul\":10249:10252   */\n      dup3\n        /* \"#utility.yul\":10160:10253   */\n      tag_121\n      jump\t// in\n    tag_215:\n        /* \"#utility.yul\":10278:10280   */\n      0x20\n        /* \"#utility.yul\":10273:10276   */\n      dup3\n        /* \"#utility.yul\":10269:10281   */\n      add\n        /* \"#utility.yul\":10262:10281   */\n      swap1\n      pop\n        /* \"#utility.yul\":9921:10287   */\n      swap2\n      swap1\n      pop\n      jump\t// out\n        /* \"#utility.yul\":10293:10712   */\n    tag_78:\n        /* \"#utility.yul\":10459:10463   */\n      0x00\n        /* \"#utility.yul\":10497:10499   */\n      0x20\n        /* \"#utility.yul\":10486:10495   */\n      dup3\n        /* \"#utility.yul\":10482:10500   */\n      add\n        /* \"#utility.yul\":10474:10500   */\n      swap1\n      pop\n        /* \"#utility.yul\":10546:10555   */\n      dup2\n        /* \"#utility.yul\":10540:10544   */\n      dup2\n        /* \"#utility.yul\":10536:10556   */\n      sub\n        /* \"#utility.yul\":10532:10533   */\n      0x00\n        /* \"#utility.yul\":10521:10530   */\n      dup4\n        /* \"#utility.yul\":10517:10534   */\n      add\n        /* \"#utility.yul\":10510:10557   */\n      mstore\n        /* \"#utility.yul\":10574:10705   */\n      tag_217\n        /* \"#utility.yul\":10700:10704   */\n      dup2\n        /* \"#utility.yul\":10574:10705   */\n      tag_122\n      jump\t// in\n    tag_217:\n        /* \"#utility.yul\":10566:10705   */\n      swap1\n      pop\n        /* \"#utility.yul\":10293:10712   */\n      swap2\n      swap1\n      pop\n      jump\t// out\n        /* \"#utility.yul\":10718:10823   */\n    tag_123:\n        /* \"#utility.yul\":10754:10761   */\n      0x00\n        /* \"#utility.yul\":10794:10816   */\n      0xffffffffffffffffffff\n        /* \"#utility.yul\":10787:10792   */\n      dup3\n        /* \"#utility.yul\":10783:10817   */\n      and\n        /* \"#utility.yul\":10772:10817   */\n      swap1\n      pop\n        /* \"#utility.yul\":10718:10823   */\n      swap2\n      swap1\n      pop\n      jump\t// out\n        /* \"#utility.yul\":10829:10949   */\n    tag_124:\n        /* \"#utility.yul\":10901:10924   */\n      tag_220\n        /* \"#utility.yul\":10918:10923   */\n      dup2\n        /* \"#utility.yul\":10901:10924   */\n      tag_123\n      jump\t// in\n    tag_220:\n        /* \"#utility.yul\":10894:10899   */\n      dup2\n        /* \"#utility.yul\":10891:10925   */\n      eq\n        /* \"#utility.yul\":10881:10943   */\n      tag_221\n      jumpi\n        /* \"#utility.yul\":10939:10940   */\n      0x00\n        /* \"#utility.yul\":10936:10937   */\n      dup1\n        /* \"#utility.yul\":10929:10941   */\n      revert\n        /* \"#utility.yul\":10881:10943   */\n    tag_221:\n        /* \"#utility.yul\":10829:10949   */\n      pop\n      jump\t// out\n        /* \"#utility.yul\":10955:11096   */\n    tag_125:\n        /* \"#utility.yul\":11011:11016   */\n      0x00\n        /* \"#utility.yul\":11042:11048   */\n      dup2\n        /* \"#utility.yul\":11036:11049   */\n      mload\n        /* \"#utility.yul\":11027:11049   */\n      swap1\n      pop\n        /* \"#utility.yul\":11058:11090   */\n      tag_223\n        /* \"#utility.yul\":11084:11089   */\n      dup2\n        /* \"#utility.yul\":11058:11090   */\n      tag_124\n      jump\t// in\n    tag_223:\n        /* \"#utility.yul\":10955:11096   */\n      swap3\n      swap2\n      pop\n      pop\n      jump\t// out\n        /* \"#utility.yul\":11102:11222   */\n    tag_126:\n        /* \"#utility.yul\":11174:11197   */\n      tag_225\n        /* \"#utility.yul\":11191:11196   */\n      dup2\n        /* \"#utility.yul\":11174:11197   */\n      tag_102\n      jump\t// in\n    tag_225:\n        /* \"#utility.yul\":11167:11172   */\n      dup2\n        /* \"#utility.yul\":11164:11198   */\n      eq\n        /* \"#utility.yul\":11154:11216   */\n      tag_226\n      jumpi\n        /* \"#utility.yul\":11212:11213   */\n      0x00\n        /* \"#utility.yul\":11209:11210   */\n      dup1\n        /* \"#utility.yul\":11202:11214   */\n      revert\n        /* \"#utility.yul\":11154:11216   */\n    tag_226:\n        /* \"#utility.yul\":11102:11222   */\n      pop\n      jump\t// out\n        /* \"#utility.yul\":11228:11369   */\n    tag_127:\n        /* \"#utility.yul\":11284:11289   */\n      0x00\n        /* \"#utility.yul\":11315:11321   */\n      dup2\n        /* \"#utility.yul\":11309:11322   */\n      mload\n        /* \"#utility.yul\":11300:11322   */\n      swap1\n      pop\n        /* \"#utility.yul\":11331:11363   */\n      tag_228\n        /* \"#utility.yul\":11357:11362   */\n      dup2\n        /* \"#utility.yul\":11331:11363   */\n      tag_126\n      jump\t// in\n    tag_228:\n        /* \"#utility.yul\":11228:11369   */\n      swap3\n      swap2\n      pop\n      pop\n      jump\t// out\n        /* \"#utility.yul\":11375:11497   */\n    tag_128:\n        /* \"#utility.yul\":11448:11472   */\n      tag_230\n        /* \"#utility.yul\":11466:11471   */\n      dup2\n        /* \"#utility.yul\":11448:11472   */\n      tag_100\n      jump\t// in\n    tag_230:\n        /* \"#utility.yul\":11441:11446   */\n      dup2\n        /* \"#utility.yul\":11438:11473   */\n      eq\n        /* \"#utility.yul\":11428:11491   */\n      tag_231\n      jumpi\n        /* \"#utility.yul\":11487:11488   */\n      0x00\n        /* \"#utility.yul\":11484:11485   */\n      dup1\n        /* \"#utility.yul\":11477:11489   */\n      revert\n        /* \"#utility.yul\":11428:11491   */\n    tag_231:\n        /* \"#utility.yul\":11375:11497   */\n      pop\n      jump\t// out\n        /* \"#utility.yul\":11503:11646   */\n    tag_129:\n        /* \"#utility.yul\":11560:11565   */\n      0x00\n        /* \"#utility.yul\":11591:11597   */\n      dup2\n        /* \"#utility.yul\":11585:11598   */\n      mload\n        /* \"#utility.yul\":11576:11598   */\n      swap1\n      pop\n        /* \"#utility.yul\":11607:11640   */\n      tag_233\n        /* \"#utility.yul\":11634:11639   */\n      dup2\n        /* \"#utility.yul\":11607:11640   */\n      tag_128\n      jump\t// in\n    tag_233:\n        /* \"#utility.yul\":11503:11646   */\n      swap3\n      swap2\n      pop\n      pop\n      jump\t// out\n        /* \"#utility.yul\":11652:12623   */\n    tag_83:\n        /* \"#utility.yul\":11755:11761   */\n      0x00\n        /* \"#utility.yul\":11763:11769   */\n      dup1\n        /* \"#utility.yul\":11771:11777   */\n      0x00\n        /* \"#utility.yul\":11779:11785   */\n      dup1\n        /* \"#utility.yul\":11787:11793   */\n      0x00\n        /* \"#utility.yul\":11836:11839   */\n      0xa0\n        /* \"#utility.yul\":11824:11833   */\n      dup7\n        /* \"#utility.yul\":11815:11822   */\n      dup9\n        /* \"#utility.yul\":11811:11834   */\n      sub\n        /* \"#utility.yul\":11807:11840   */\n      slt\n        /* \"#utility.yul\":11804:11924   */\n      iszero\n      tag_235\n      jumpi\n        /* \"#utility.yul\":11843:11922   */\n      tag_236\n      tag_94\n      jump\t// in\n    tag_236:\n        /* \"#utility.yul\":11804:11924   */\n    tag_235:\n        /* \"#utility.yul\":11963:11964   */\n      0x00\n        /* \"#utility.yul\":11988:12051   */\n      tag_237\n        /* \"#utility.yul\":12043:12050   */\n      dup9\n        /* \"#utility.yul\":12034:12040   */\n      dup3\n        /* \"#utility.yul\":12023:12032   */\n      dup10\n        /* \"#utility.yul\":12019:12041   */\n      add\n        /* \"#utility.yul\":11988:12051   */\n      tag_125\n      jump\t// in\n    tag_237:\n        /* \"#utility.yul\":11978:12051   */\n      swap6\n      pop\n        /* \"#utility.yul\":11934:12061   */\n      pop\n        /* \"#utility.yul\":12100:12102   */\n      0x20\n        /* \"#utility.yul\":12126:12189   */\n      tag_238\n        /* \"#utility.yul\":12181:12188   */\n      dup9\n        /* \"#utility.yul\":12172:12178   */\n      dup3\n        /* \"#utility.yul\":12161:12170   */\n      dup10\n        /* \"#utility.yul\":12157:12179   */\n      add\n        /* \"#utility.yul\":12126:12189   */\n      tag_127\n      jump\t// in\n    tag_238:\n        /* \"#utility.yul\":12116:12189   */\n      swap5\n      pop\n        /* \"#utility.yul\":12071:12199   */\n      pop\n        /* \"#utility.yul\":12238:12240   */\n      0x40\n        /* \"#utility.yul\":12264:12328   */\n      tag_239\n        /* \"#utility.yul\":12320:12327   */\n      dup9\n        /* \"#utility.yul\":12311:12317   */\n      dup3\n        /* \"#utility.yul\":12300:12309   */\n      dup10\n        /* \"#utility.yul\":12296:12318   */\n      add\n        /* \"#utility.yul\":12264:12328   */\n      tag_129\n      jump\t// in\n    tag_239:\n        /* \"#utility.yul\":12254:12328   */\n      swap4\n      pop\n        /* \"#utility.yul\":12209:12338   */\n      pop\n        /* \"#utility.yul\":12377:12379   */\n      0x60\n        /* \"#utility.yul\":12403:12467   */\n      tag_240\n        /* \"#utility.yul\":12459:12466   */\n      dup9\n        /* \"#utility.yul\":12450:12456   */\n      dup3\n        /* \"#utility.yul\":12439:12448   */\n      dup10\n        /* \"#utility.yul\":12435:12457   */\n      add\n        /* \"#utility.yul\":12403:12467   */\n      tag_129\n      jump\t// in\n    tag_240:\n        /* \"#utility.yul\":12393:12467   */\n      swap3\n      pop\n        /* \"#utility.yul\":12348:12477   */\n      pop\n        /* \"#utility.yul\":12516:12519   */\n      0x80\n        /* \"#utility.yul\":12543:12606   */\n      tag_241\n        /* \"#utility.yul\":12598:12605   */\n      dup9\n        /* \"#utility.yul\":12589:12595   */\n      dup3\n        /* \"#utility.yul\":12578:12587   */\n      dup10\n        /* \"#utility.yul\":12574:12596   */\n      add\n        /* \"#utility.yul\":12543:12606   */\n      tag_125\n      jump\t// in\n    tag_241:\n        /* \"#utility.yul\":12533:12606   */\n      swap2\n      pop\n        /* \"#utility.yul\":12487:12616   */\n      pop\n        /* \"#utility.yul\":11652:12623   */\n      swap3\n      swap6\n      pop\n      swap3\n      swap6\n      swap1\n      swap4\n      pop\n      jump\t// out\n        /* \"#utility.yul\":12629:13039   */\n    tag_90:\n        /* \"#utility.yul\":12669:12676   */\n      0x00\n        /* \"#utility.yul\":12692:12712   */\n      tag_243\n        /* \"#utility.yul\":12710:12711   */\n      dup3\n        /* \"#utility.yul\":12692:12712   */\n      tag_100\n      jump\t// in\n    tag_243:\n        /* \"#utility.yul\":12687:12712   */\n      swap2\n      pop\n        /* \"#utility.yul\":12726:12746   */\n      tag_244\n        /* \"#utility.yul\":12744:12745   */\n      dup4\n        /* \"#utility.yul\":12726:12746   */\n      tag_100\n      jump\t// in\n    tag_244:\n        /* \"#utility.yul\":12721:12746   */\n      swap3\n      pop\n        /* \"#utility.yul\":12781:12782   */\n      dup3\n        /* \"#utility.yul\":12778:12779   */\n      dup3\n        /* \"#utility.yul\":12774:12783   */\n      mul\n        /* \"#utility.yul\":12803:12833   */\n      tag_245\n        /* \"#utility.yul\":12821:12832   */\n      dup2\n        /* \"#utility.yul\":12803:12833   */\n      tag_100\n      jump\t// in\n    tag_245:\n        /* \"#utility.yul\":12792:12833   */\n      swap2\n      pop\n        /* \"#utility.yul\":12982:12983   */\n      dup3\n        /* \"#utility.yul\":12973:12980   */\n      dup3\n        /* \"#utility.yul\":12969:12984   */\n      div\n        /* \"#utility.yul\":12966:12967   */\n      dup5\n        /* \"#utility.yul\":12963:12985   */\n      eq\n        /* \"#utility.yul\":12943:12944   */\n      dup4\n        /* \"#utility.yul\":12936:12945   */\n      iszero\n        /* \"#utility.yul\":12916:12999   */\n      or\n        /* \"#utility.yul\":12893:13032   */\n      tag_246\n      jumpi\n        /* \"#utility.yul\":13012:13030   */\n      tag_247\n      tag_104\n      jump\t// in\n    tag_247:\n        /* \"#utility.yul\":12893:13032   */\n    tag_246:\n        /* \"#utility.yul\":12677:13039   */\n      pop\n        /* \"#utility.yul\":12629:13039   */\n      swap3\n      swap2\n      pop\n      pop\n      jump\t// out\n        /* \"#utility.yul\":13045:13225   */\n    tag_130:\n        /* \"#utility.yul\":13093:13170   */\n      0x4e487b7100000000000000000000000000000000000000000000000000000000\n        /* \"#utility.yul\":13090:13091   */\n      0x00\n        /* \"#utility.yul\":13083:13171   */\n      mstore\n        /* \"#utility.yul\":13190:13194   */\n      0x12\n        /* \"#utility.yul\":13187:13188   */\n      0x04\n        /* \"#utility.yul\":13180:13195   */\n      mstore\n        /* \"#utility.yul\":13214:13218   */\n      0x24\n        /* \"#utility.yul\":13211:13212   */\n      0x00\n        /* \"#utility.yul\":13204:13219   */\n      revert\n        /* \"#utility.yul\":13231:13416   */\n    tag_92:\n        /* \"#utility.yul\":13271:13272   */\n      0x00\n        /* \"#utility.yul\":13288:13308   */\n      tag_250\n        /* \"#utility.yul\":13306:13307   */\n      dup3\n        /* \"#utility.yul\":13288:13308   */\n      tag_100\n      jump\t// in\n    tag_250:\n        /* \"#utility.yul\":13283:13308   */\n      swap2\n      pop\n        /* \"#utility.yul\":13322:13342   */\n      tag_251\n        /* \"#utility.yul\":13340:13341   */\n      dup4\n        /* \"#utility.yul\":13322:13342   */\n      tag_100\n      jump\t// in\n    tag_251:\n        /* \"#utility.yul\":13317:13342   */\n      swap3\n      pop\n        /* \"#utility.yul\":13361:13362   */\n      dup3\n        /* \"#utility.yul\":13351:13386   */\n      tag_252\n      jumpi\n        /* \"#utility.yul\":13366:13384   */\n      tag_253\n      tag_130\n      jump\t// in\n    tag_253:\n        /* \"#utility.yul\":13351:13386   */\n    tag_252:\n        /* \"#utility.yul\":13408:13409   */\n      dup3\n        /* \"#utility.yul\":13405:13406   */\n      dup3\n        /* \"#utility.yul\":13401:13410   */\n      div\n        /* \"#utility.yul\":13396:13410   */\n      swap1\n      pop\n        /* \"#utility.yul\":13231:13416   */\n      swap3\n      swap2\n      pop\n      pop\n      jump\t// out\n\n    auxdata: 0xa264697066735822122032324cc008544f5ab36c0f2698cca4fa8705880f127f91a671a4d5baf6fc3ea764736f6c634300081a0033\n}\n",
				"bytecode": {
					"linkReferences": {},
					"object": "608060405268056bc75e2d6310000060015534801561001c575f80fd5b50604051610f66380380610f66833981810160405281019061003e919061011d565b73694aa1769357215de4fac081bf1f309adc32530660025f6101000a81548173ffffffffffffffffffffffffffffffffffffffff021916908373ffffffffffffffffffffffffffffffffffffffff1602179055503360035f6101000a81548173ffffffffffffffffffffffffffffffffffffffff021916908373ffffffffffffffffffffffffffffffffffffffff160217905550426004819055508060058190555050610148565b5f80fd5b5f819050919050565b6100fc816100ea565b8114610106575f80fd5b50565b5f81519050610117816100f3565b92915050565b5f60208284031215610132576101316100e6565b5b5f61013f84828501610109565b91505092915050565b610e11806101555f395ff3fe608060405260043610610054575f3560e01c80630ff0a4df146100585780638edd6eb61461006e5780639f883a0514610084578063b60d4288146100c0578063bea4dfb5146100ca578063f2fde38b146100f4575b5f80fd5b348015610063575f80fd5b5061006c61011c565b005b348015610079575f80fd5b50610082610331565b005b34801561008f575f80fd5b506100aa60048036038101906100a591906107c4565b6104d3565b6040516100b79190610807565b60405180910390f35b6100c86104e7565b005b3480156100d5575f80fd5b506100de6105c8565b6040516100eb9190610838565b60405180910390f35b3480156100ff575f80fd5b5061011a600480360381019061011591906107c4565b610665565b005b60055460045461012c919061087e565b42101561016e576040517f08c379a00000000000000000000000000000000000000000000000000000000081526004016101659061090b565b60405180910390fd5b683635c9adc5dea0000061018147610737565b106101c1576040517f08c379a00000000000000000000000000000000000000000000000000000000081526004016101b890610973565b60405180910390fd5b5f805f3373ffffffffffffffffffffffffffffffffffffffff1673ffffffffffffffffffffffffffffffffffffffff1681526020019081526020015f20540361023f576040517f08c379a0000000000000000000000000000000000000000000000000000000008152600401610236906109db565b60405180910390fd5b5f3373ffffffffffffffffffffffffffffffffffffffff165f803373ffffffffffffffffffffffffffffffffffffffff1673ffffffffffffffffffffffffffffffffffffffff1681526020019081526020015f20546040516102a090610a26565b5f6040518083038185875af1925050503d805f81146102da576040519150601f19603f3d011682016040523d82523d5f602084013e6102df565b606091505b5050809150505f805f3373ffffffffffffffffffffffffffffffffffffffff1673ffffffffffffffffffffffffffffffffffffffff1681526020019081526020015f205461032d9190610a3a565b5050565b600554600454610341919061087e565b421015610383576040517f08c379a000000000000000000000000000000000000000000000000000000000815260040161037a9061090b565b60405180910390fd5b60035f9054906101000a900473ffffffffffffffffffffffffffffffffffffffff1673ffffffffffffffffffffffffffffffffffffffff163373ffffffffffffffffffffffffffffffffffffffff1614610412576040517f08c379a000000000000000000000000000000000000000000000000000000000815260040161040990610add565b60405180910390fd5b683635c9adc5dea0000061042547610737565b1015610466576040517f08c379a000000000000000000000000000000000000000000000000000000000815260040161045d90610b45565b60405180910390fd5b5f3373ffffffffffffffffffffffffffffffffffffffff164760405161048b90610a26565b5f6040518083038185875af1925050503d805f81146104c5576040519150601f19603f3d011682016040523d82523d5f602084013e6104ca565b606091505b50508091505050565b5f602052805f5260405f205f915090505481565b6001546104f334610737565b1015610534576040517f08c379a000000000000000000000000000000000000000000000000000000000815260040161052b90610bad565b60405180910390fd5b600554600454610544919061087e565b4210610585576040517f08c379a000000000000000000000000000000000000000000000000000000000815260040161057c90610c15565b60405180910390fd5b345f803373ffffffffffffffffffffffffffffffffffffffff1673ffffffffffffffffffffffffffffffffffffffff1681526020019081526020015f2081905550565b5f8060025f9054906101000a900473ffffffffffffffffffffffffffffffffffffffff1673ffffffffffffffffffffffffffffffffffffffff1663feaf968c6040518163ffffffff1660e01b815260040160a060405180830381865afa158015610634573d5f803e3d5ffd5b505050506040513d601f19601f820116820180604052508101906106589190610cc6565b5050509150508091505090565b60035f9054906101000a900473ffffffffffffffffffffffffffffffffffffffff1673ffffffffffffffffffffffffffffffffffffffff163373ffffffffffffffffffffffffffffffffffffffff16146106f4576040517f08c379a00000000000000000000000000000000000000000000000000000000081526004016106eb90610add565b60405180910390fd5b8060035f6101000a81548173ffffffffffffffffffffffffffffffffffffffff021916908373ffffffffffffffffffffffffffffffffffffffff16021790555050565b5f806107416105c8565b90506305f5e10081846107549190610d3d565b61075e9190610dab565b915050919050565b5f80fd5b5f73ffffffffffffffffffffffffffffffffffffffff82169050919050565b5f6107938261076a565b9050919050565b6107a381610789565b81146107ad575f80fd5b50565b5f813590506107be8161079a565b92915050565b5f602082840312156107d9576107d8610766565b5b5f6107e6848285016107b0565b91505092915050565b5f819050919050565b610801816107ef565b82525050565b5f60208201905061081a5f8301846107f8565b92915050565b5f819050919050565b61083281610820565b82525050565b5f60208201905061084b5f830184610829565b92915050565b7f4e487b71000000000000000000000000000000000000000000000000000000005f52601160045260245ffd5b5f610888826107ef565b9150610893836107ef565b92508282019050808211156108ab576108aa610851565b5b92915050565b5f82825260208201905092915050565b7f77696e646f77206973206e6f7420636c6f7365640000000000000000000000005f82015250565b5f6108f56014836108b1565b9150610900826108c1565b602082019050919050565b5f6020820190508181035f830152610922816108e9565b9050919050565b7f54415247455420697320726561636865640000000000000000000000000000005f82015250565b5f61095d6011836108b1565b915061096882610929565b602082019050919050565b5f6020820190508181035f83015261098a81610951565b9050919050565b7f7468657265206973206e6f2066756e6420666f7220796f7500000000000000005f82015250565b5f6109c56018836108b1565b91506109d082610991565b602082019050919050565b5f6020820190508181035f8301526109f2816109b9565b9050919050565b5f81905092915050565b50565b5f610a115f836109f9565b9150610a1c82610a03565b5f82019050919050565b5f610a3082610a06565b9150819050919050565b5f610a44826107ef565b9150610a4f836107ef565b9250828203905081811115610a6757610a66610851565b5b92915050565b7f746869732066756e6374696f6e2063616e206f6e6c792062652063616c6c65645f8201527f206279206f776e65720000000000000000000000000000000000000000000000602082015250565b5f610ac76029836108b1565b9150610ad282610a6d565b604082019050919050565b5f6020820190508181035f830152610af481610abb565b9050919050565b7f544152474554206973206e6f74207265616368656400000000000000000000005f82015250565b5f610b2f6015836108b1565b9150610b3a82610afb565b602082019050919050565b5f6020820190508181035f830152610b5c81610b23565b9050919050565b7f73656e64206d6f726520455448000000000000000000000000000000000000005f82015250565b5f610b97600d836108b1565b9150610ba282610b63565b602082019050919050565b5f6020820190508181035f830152610bc481610b8b565b9050919050565b7f77696e646f7720697320636c6f736564000000000000000000000000000000005f82015250565b5f610bff6010836108b1565b9150610c0a82610bcb565b602082019050919050565b5f6020820190508181035f830152610c2c81610bf3565b9050919050565b5f69ffffffffffffffffffff82169050919050565b610c5181610c33565b8114610c5b575f80fd5b50565b5f81519050610c6c81610c48565b92915050565b610c7b81610820565b8114610c85575f80fd5b50565b5f81519050610c9681610c72565b92915050565b610ca5816107ef565b8114610caf575f80fd5b50565b5f81519050610cc081610c9c565b92915050565b5f805f805f60a08688031215610cdf57610cde610766565b5b5f610cec88828901610c5e565b9550506020610cfd88828901610c88565b9450506040610d0e88828901610cb2565b9350506060610d1f88828901610cb2565b9250506080610d3088828901610c5e565b9150509295509295909350565b5f610d47826107ef565b9150610d52836107ef565b9250828202610d60816107ef565b91508282048414831517610d7757610d76610851565b5b5092915050565b7f4e487b71000000000000000000000000000000000000000000000000000000005f52601260045260245ffd5b5f610db5826107ef565b9150610dc0836107ef565b925082610dd057610dcf610d7e565b5b82820490509291505056fea264697066735822122032324cc008544f5ab36c0f2698cca4fa8705880f127f91a671a4d5baf6fc3ea764736f6c634300081a0033",
					"opcodes": "PUSH1 0x80 PUSH1 0x40 MSTORE PUSH9 0x56BC75E2D63100000 PUSH1 0x1 SSTORE CALLVALUE DUP1 ISZERO PUSH2 0x1C JUMPI PUSH0 DUP1 REVERT JUMPDEST POP PUSH1 0x40 MLOAD PUSH2 0xF66 CODESIZE SUB DUP1 PUSH2 0xF66 DUP4 CODECOPY DUP2 DUP2 ADD PUSH1 0x40 MSTORE DUP2 ADD SWAP1 PUSH2 0x3E SWAP2 SWAP1 PUSH2 0x11D JUMP JUMPDEST PUSH20 0x694AA1769357215DE4FAC081BF1F309ADC325306 PUSH1 0x2 PUSH0 PUSH2 0x100 EXP DUP2 SLOAD DUP2 PUSH20 0xFFFFFFFFFFFFFFFFFFFFFFFFFFFFFFFFFFFFFFFF MUL NOT AND SWAP1 DUP4 PUSH20 0xFFFFFFFFFFFFFFFFFFFFFFFFFFFFFFFFFFFFFFFF AND MUL OR SWAP1 SSTORE POP CALLER PUSH1 0x3 PUSH0 PUSH2 0x100 EXP DUP2 SLOAD DUP2 PUSH20 0xFFFFFFFFFFFFFFFFFFFFFFFFFFFFFFFFFFFFFFFF MUL NOT AND SWAP1 DUP4 PUSH20 0xFFFFFFFFFFFFFFFFFFFFFFFFFFFFFFFFFFFFFFFF AND MUL OR SWAP1 SSTORE POP TIMESTAMP PUSH1 0x4 DUP2 SWAP1 SSTORE POP DUP1 PUSH1 0x5 DUP2 SWAP1 SSTORE POP POP PUSH2 0x148 JUMP JUMPDEST PUSH0 DUP1 REVERT JUMPDEST PUSH0 DUP2 SWAP1 POP SWAP2 SWAP1 POP JUMP JUMPDEST PUSH2 0xFC DUP2 PUSH2 0xEA JUMP JUMPDEST DUP2 EQ PUSH2 0x106 JUMPI PUSH0 DUP1 REVERT JUMPDEST POP JUMP JUMPDEST PUSH0 DUP2 MLOAD SWAP1 POP PUSH2 0x117 DUP2 PUSH2 0xF3 JUMP JUMPDEST SWAP3 SWAP2 POP POP JUMP JUMPDEST PUSH0 PUSH1 0x20 DUP3 DUP5 SUB SLT ISZERO PUSH2 0x132 JUMPI PUSH2 0x131 PUSH2 0xE6 JUMP JUMPDEST JUMPDEST PUSH0 PUSH2 0x13F DUP5 DUP3 DUP6 ADD PUSH2 0x109 JUMP JUMPDEST SWAP2 POP POP SWAP3 SWAP2 POP POP JUMP JUMPDEST PUSH2 0xE11 DUP1 PUSH2 0x155 PUSH0 CODECOPY PUSH0 RETURN INVALID PUSH1 0x80 PUSH1 0x40 MSTORE PUSH1 0x4 CALLDATASIZE LT PUSH2 0x54 JUMPI PUSH0 CALLDATALOAD PUSH1 0xE0 SHR DUP1 PUSH4 0xFF0A4DF EQ PUSH2 0x58 JUMPI DUP1 PUSH4 0x8EDD6EB6 EQ PUSH2 0x6E JUMPI DUP1 PUSH4 0x9F883A05 EQ PUSH2 0x84 JUMPI DUP1 PUSH4 0xB60D4288 EQ PUSH2 0xC0 JUMPI DUP1 PUSH4 0xBEA4DFB5 EQ PUSH2 0xCA JUMPI DUP1 PUSH4 0xF2FDE38B EQ PUSH2 0xF4 JUMPI JUMPDEST PUSH0 DUP1 REVERT JUMPDEST CALLVALUE DUP1 ISZERO PUSH2 0x63 JUMPI PUSH0 DUP1 REVERT JUMPDEST POP PUSH2 0x6C PUSH2 0x11C JUMP JUMPDEST STOP JUMPDEST CALLVALUE DUP1 ISZERO PUSH2 0x79 JUMPI PUSH0 DUP1 REVERT JUMPDEST POP PUSH2 0x82 PUSH2 0x331 JUMP JUMPDEST STOP JUMPDEST CALLVALUE DUP1 ISZERO PUSH2 0x8F JUMPI PUSH0 DUP1 REVERT JUMPDEST POP PUSH2 0xAA PUSH1 0x4 DUP1 CALLDATASIZE SUB DUP2 ADD SWAP1 PUSH2 0xA5 SWAP2 SWAP1 PUSH2 0x7C4 JUMP JUMPDEST PUSH2 0x4D3 JUMP JUMPDEST PUSH1 0x40 MLOAD PUSH2 0xB7 SWAP2 SWAP1 PUSH2 0x807 JUMP JUMPDEST PUSH1 0x40 MLOAD DUP1 SWAP2 SUB SWAP1 RETURN JUMPDEST PUSH2 0xC8 PUSH2 0x4E7 JUMP JUMPDEST STOP JUMPDEST CALLVALUE DUP1 ISZERO PUSH2 0xD5 JUMPI PUSH0 DUP1 REVERT JUMPDEST POP PUSH2 0xDE PUSH2 0x5C8 JUMP JUMPDEST PUSH1 0x40 MLOAD PUSH2 0xEB SWAP2 SWAP1 PUSH2 0x838 JUMP JUMPDEST PUSH1 0x40 MLOAD DUP1 SWAP2 SUB SWAP1 RETURN JUMPDEST CALLVALUE DUP1 ISZERO PUSH2 0xFF JUMPI PUSH0 DUP1 REVERT JUMPDEST POP PUSH2 0x11A PUSH1 0x4 DUP1 CALLDATASIZE SUB DUP2 ADD SWAP1 PUSH2 0x115 SWAP2 SWAP1 PUSH2 0x7C4 JUMP JUMPDEST PUSH2 0x665 JUMP JUMPDEST STOP JUMPDEST PUSH1 0x5 SLOAD PUSH1 0x4 SLOAD PUSH2 0x12C SWAP2 SWAP1 PUSH2 0x87E JUMP JUMPDEST TIMESTAMP LT ISZERO PUSH2 0x16E JUMPI PUSH1 0x40 MLOAD PUSH32 0x8C379A000000000000000000000000000000000000000000000000000000000 DUP2 MSTORE PUSH1 0x4 ADD PUSH2 0x165 SWAP1 PUSH2 0x90B JUMP JUMPDEST PUSH1 0x40 MLOAD DUP1 SWAP2 SUB SWAP1 REVERT JUMPDEST PUSH9 0x3635C9ADC5DEA00000 PUSH2 0x181 SELFBALANCE PUSH2 0x737 JUMP JUMPDEST LT PUSH2 0x1C1 JUMPI PUSH1 0x40 MLOAD PUSH32 0x8C379A000000000000000000000000000000000000000000000000000000000 DUP2 MSTORE PUSH1 0x4 ADD PUSH2 0x1B8 SWAP1 PUSH2 0x973 JUMP JUMPDEST PUSH1 0x40 MLOAD DUP1 SWAP2 SUB SWAP1 REVERT JUMPDEST PUSH0 DUP1 PUSH0 CALLER PUSH20 0xFFFFFFFFFFFFFFFFFFFFFFFFFFFFFFFFFFFFFFFF AND PUSH20 0xFFFFFFFFFFFFFFFFFFFFFFFFFFFFFFFFFFFFFFFF AND DUP2 MSTORE PUSH1 0x20 ADD SWAP1 DUP2 MSTORE PUSH1 0x20 ADD PUSH0 KECCAK256 SLOAD SUB PUSH2 0x23F JUMPI PUSH1 0x40 MLOAD PUSH32 0x8C379A000000000000000000000000000000000000000000000000000000000 DUP2 MSTORE PUSH1 0x4 ADD PUSH2 0x236 SWAP1 PUSH2 0x9DB JUMP JUMPDEST PUSH1 0x40 MLOAD DUP1 SWAP2 SUB SWAP1 REVERT JUMPDEST PUSH0 CALLER PUSH20 0xFFFFFFFFFFFFFFFFFFFFFFFFFFFFFFFFFFFFFFFF AND PUSH0 DUP1 CALLER PUSH20 0xFFFFFFFFFFFFFFFFFFFFFFFFFFFFFFFFFFFFFFFF AND PUSH20 0xFFFFFFFFFFFFFFFFFFFFFFFFFFFFFFFFFFFFFFFF AND DUP2 MSTORE PUSH1 0x20 ADD SWAP1 DUP2 MSTORE PUSH1 0x20 ADD PUSH0 KECCAK256 SLOAD PUSH1 0x40 MLOAD PUSH2 0x2A0 SWAP1 PUSH2 0xA26 JUMP JUMPDEST PUSH0 PUSH1 0x40 MLOAD DUP1 DUP4 SUB DUP2 DUP6 DUP8 GAS CALL SWAP3 POP POP POP RETURNDATASIZE DUP1 PUSH0 DUP2 EQ PUSH2 0x2DA JUMPI PUSH1 0x40 MLOAD SWAP2 POP PUSH1 0x1F NOT PUSH1 0x3F RETURNDATASIZE ADD AND DUP3 ADD PUSH1 0x40 MSTORE RETURNDATASIZE DUP3 MSTORE RETURNDATASIZE PUSH0 PUSH1 0x20 DUP5 ADD RETURNDATACOPY PUSH2 0x2DF JUMP JUMPDEST PUSH1 0x60 SWAP2 POP JUMPDEST POP POP DUP1 SWAP2 POP POP PUSH0 DUP1 PUSH0 CALLER PUSH20 0xFFFFFFFFFFFFFFFFFFFFFFFFFFFFFFFFFFFFFFFF AND PUSH20 0xFFFFFFFFFFFFFFFFFFFFFFFFFFFFFFFFFFFFFFFF AND DUP2 MSTORE PUSH1 0x20 ADD SWAP1 DUP2 MSTORE PUSH1 0x20 ADD PUSH0 KECCAK256 SLOAD PUSH2 0x32D SWAP2 SWAP1 PUSH2 0xA3A JUMP JUMPDEST POP POP JUMP JUMPDEST PUSH1 0x5 SLOAD PUSH1 0x4 SLOAD PUSH2 0x341 SWAP2 SWAP1 PUSH2 0x87E JUMP JUMPDEST TIMESTAMP LT ISZERO PUSH2 0x383 JUMPI PUSH1 0x40 MLOAD PUSH32 0x8C379A000000000000000000000000000000000000000000000000000000000 DUP2 MSTORE PUSH1 0x4 ADD PUSH2 0x37A SWAP1 PUSH2 0x90B JUMP JUMPDEST PUSH1 0x40 MLOAD DUP1 SWAP2 SUB SWAP1 REVERT JUMPDEST PUSH1 0x3 PUSH0 SWAP1 SLOAD SWAP1 PUSH2 0x100 EXP SWAP1 DIV PUSH20 0xFFFFFFFFFFFFFFFFFFFFFFFFFFFFFFFFFFFFFFFF AND PUSH20 0xFFFFFFFFFFFFFFFFFFFFFFFFFFFFFFFFFFFFFFFF AND CALLER PUSH20 0xFFFFFFFFFFFFFFFFFFFFFFFFFFFFFFFFFFFFFFFF AND EQ PUSH2 0x412 JUMPI PUSH1 0x40 MLOAD PUSH32 0x8C379A000000000000000000000000000000000000000000000000000000000 DUP2 MSTORE PUSH1 0x4 ADD PUSH2 0x409 SWAP1 PUSH2 0xADD JUMP JUMPDEST PUSH1 0x40 MLOAD DUP1 SWAP2 SUB SWAP1 REVERT JUMPDEST PUSH9 0x3635C9ADC5DEA00000 PUSH2 0x425 SELFBALANCE PUSH2 0x737 JUMP JUMPDEST LT ISZERO PUSH2 0x466 JUMPI PUSH1 0x40 MLOAD PUSH32 0x8C379A000000000000000000000000000000000000000000000000000000000 DUP2 MSTORE PUSH1 0x4 ADD PUSH2 0x45D SWAP1 PUSH2 0xB45 JUMP JUMPDEST PUSH1 0x40 MLOAD DUP1 SWAP2 SUB SWAP1 REVERT JUMPDEST PUSH0 CALLER PUSH20 0xFFFFFFFFFFFFFFFFFFFFFFFFFFFFFFFFFFFFFFFF AND SELFBALANCE PUSH1 0x40 MLOAD PUSH2 0x48B SWAP1 PUSH2 0xA26 JUMP JUMPDEST PUSH0 PUSH1 0x40 MLOAD DUP1 DUP4 SUB DUP2 DUP6 DUP8 GAS CALL SWAP3 POP POP POP RETURNDATASIZE DUP1 PUSH0 DUP2 EQ PUSH2 0x4C5 JUMPI PUSH1 0x40 MLOAD SWAP2 POP PUSH1 0x1F NOT PUSH1 0x3F RETURNDATASIZE ADD AND DUP3 ADD PUSH1 0x40 MSTORE RETURNDATASIZE DUP3 MSTORE RETURNDATASIZE PUSH0 PUSH1 0x20 DUP5 ADD RETURNDATACOPY PUSH2 0x4CA JUMP JUMPDEST PUSH1 0x60 SWAP2 POP JUMPDEST POP POP DUP1 SWAP2 POP POP POP JUMP JUMPDEST PUSH0 PUSH1 0x20 MSTORE DUP1 PUSH0 MSTORE PUSH1 0x40 PUSH0 KECCAK256 PUSH0 SWAP2 POP SWAP1 POP SLOAD DUP2 JUMP JUMPDEST PUSH1 0x1 SLOAD PUSH2 0x4F3 CALLVALUE PUSH2 0x737 JUMP JUMPDEST LT ISZERO PUSH2 0x534 JUMPI PUSH1 0x40 MLOAD PUSH32 0x8C379A000000000000000000000000000000000000000000000000000000000 DUP2 MSTORE PUSH1 0x4 ADD PUSH2 0x52B SWAP1 PUSH2 0xBAD JUMP JUMPDEST PUSH1 0x40 MLOAD DUP1 SWAP2 SUB SWAP1 REVERT JUMPDEST PUSH1 0x5 SLOAD PUSH1 0x4 SLOAD PUSH2 0x544 SWAP2 SWAP1 PUSH2 0x87E JUMP JUMPDEST TIMESTAMP LT PUSH2 0x585 JUMPI PUSH1 0x40 MLOAD PUSH32 0x8C379A000000000000000000000000000000000000000000000000000000000 DUP2 MSTORE PUSH1 0x4 ADD PUSH2 0x57C SWAP1 PUSH2 0xC15 JUMP JUMPDEST PUSH1 0x40 MLOAD DUP1 SWAP2 SUB SWAP1 REVERT JUMPDEST CALLVALUE PUSH0 DUP1 CALLER PUSH20 0xFFFFFFFFFFFFFFFFFFFFFFFFFFFFFFFFFFFFFFFF AND PUSH20 0xFFFFFFFFFFFFFFFFFFFFFFFFFFFFFFFFFFFFFFFF AND DUP2 MSTORE PUSH1 0x20 ADD SWAP1 DUP2 MSTORE PUSH1 0x20 ADD PUSH0 KECCAK256 DUP2 SWAP1 SSTORE POP JUMP JUMPDEST PUSH0 DUP1 PUSH1 0x2 PUSH0 SWAP1 SLOAD SWAP1 PUSH2 0x100 EXP SWAP1 DIV PUSH20 0xFFFFFFFFFFFFFFFFFFFFFFFFFFFFFFFFFFFFFFFF AND PUSH20 0xFFFFFFFFFFFFFFFFFFFFFFFFFFFFFFFFFFFFFFFF AND PUSH4 0xFEAF968C PUSH1 0x40 MLOAD DUP2 PUSH4 0xFFFFFFFF AND PUSH1 0xE0 SHL DUP2 MSTORE PUSH1 0x4 ADD PUSH1 0xA0 PUSH1 0x40 MLOAD DUP1 DUP4 SUB DUP2 DUP7 GAS STATICCALL ISZERO DUP1 ISZERO PUSH2 0x634 JUMPI RETURNDATASIZE PUSH0 DUP1 RETURNDATACOPY RETURNDATASIZE PUSH0 REVERT JUMPDEST POP POP POP POP PUSH1 0x40 MLOAD RETURNDATASIZE PUSH1 0x1F NOT PUSH1 0x1F DUP3 ADD AND DUP3 ADD DUP1 PUSH1 0x40 MSTORE POP DUP2 ADD SWAP1 PUSH2 0x658 SWAP2 SWAP1 PUSH2 0xCC6 JUMP JUMPDEST POP POP POP SWAP2 POP POP DUP1 SWAP2 POP POP SWAP1 JUMP JUMPDEST PUSH1 0x3 PUSH0 SWAP1 SLOAD SWAP1 PUSH2 0x100 EXP SWAP1 DIV PUSH20 0xFFFFFFFFFFFFFFFFFFFFFFFFFFFFFFFFFFFFFFFF AND PUSH20 0xFFFFFFFFFFFFFFFFFFFFFFFFFFFFFFFFFFFFFFFF AND CALLER PUSH20 0xFFFFFFFFFFFFFFFFFFFFFFFFFFFFFFFFFFFFFFFF AND EQ PUSH2 0x6F4 JUMPI PUSH1 0x40 MLOAD PUSH32 0x8C379A000000000000000000000000000000000000000000000000000000000 DUP2 MSTORE PUSH1 0x4 ADD PUSH2 0x6EB SWAP1 PUSH2 0xADD JUMP JUMPDEST PUSH1 0x40 MLOAD DUP1 SWAP2 SUB SWAP1 REVERT JUMPDEST DUP1 PUSH1 0x3 PUSH0 PUSH2 0x100 EXP DUP2 SLOAD DUP2 PUSH20 0xFFFFFFFFFFFFFFFFFFFFFFFFFFFFFFFFFFFFFFFF MUL NOT AND SWAP1 DUP4 PUSH20 0xFFFFFFFFFFFFFFFFFFFFFFFFFFFFFFFFFFFFFFFF AND MUL OR SWAP1 SSTORE POP POP JUMP JUMPDEST PUSH0 DUP1 PUSH2 0x741 PUSH2 0x5C8 JUMP JUMPDEST SWAP1 POP PUSH4 0x5F5E100 DUP2 DUP5 PUSH2 0x754 SWAP2 SWAP1 PUSH2 0xD3D JUMP JUMPDEST PUSH2 0x75E SWAP2 SWAP1 PUSH2 0xDAB JUMP JUMPDEST SWAP2 POP POP SWAP2 SWAP1 POP JUMP JUMPDEST PUSH0 DUP1 REVERT JUMPDEST PUSH0 PUSH20 0xFFFFFFFFFFFFFFFFFFFFFFFFFFFFFFFFFFFFFFFF DUP3 AND SWAP1 POP SWAP2 SWAP1 POP JUMP JUMPDEST PUSH0 PUSH2 0x793 DUP3 PUSH2 0x76A JUMP JUMPDEST SWAP1 POP SWAP2 SWAP1 POP JUMP JUMPDEST PUSH2 0x7A3 DUP2 PUSH2 0x789 JUMP JUMPDEST DUP2 EQ PUSH2 0x7AD JUMPI PUSH0 DUP1 REVERT JUMPDEST POP JUMP JUMPDEST PUSH0 DUP2 CALLDATALOAD SWAP1 POP PUSH2 0x7BE DUP2 PUSH2 0x79A JUMP JUMPDEST SWAP3 SWAP2 POP POP JUMP JUMPDEST PUSH0 PUSH1 0x20 DUP3 DUP5 SUB SLT ISZERO PUSH2 0x7D9 JUMPI PUSH2 0x7D8 PUSH2 0x766 JUMP JUMPDEST JUMPDEST PUSH0 PUSH2 0x7E6 DUP5 DUP3 DUP6 ADD PUSH2 0x7B0 JUMP JUMPDEST SWAP2 POP POP SWAP3 SWAP2 POP POP JUMP JUMPDEST PUSH0 DUP2 SWAP1 POP SWAP2 SWAP1 POP JUMP JUMPDEST PUSH2 0x801 DUP2 PUSH2 0x7EF JUMP JUMPDEST DUP3 MSTORE POP POP JUMP JUMPDEST PUSH0 PUSH1 0x20 DUP3 ADD SWAP1 POP PUSH2 0x81A PUSH0 DUP4 ADD DUP5 PUSH2 0x7F8 JUMP JUMPDEST SWAP3 SWAP2 POP POP JUMP JUMPDEST PUSH0 DUP2 SWAP1 POP SWAP2 SWAP1 POP JUMP JUMPDEST PUSH2 0x832 DUP2 PUSH2 0x820 JUMP JUMPDEST DUP3 MSTORE POP POP JUMP JUMPDEST PUSH0 PUSH1 0x20 DUP3 ADD SWAP1 POP PUSH2 0x84B PUSH0 DUP4 ADD DUP5 PUSH2 0x829 JUMP JUMPDEST SWAP3 SWAP2 POP POP JUMP JUMPDEST PUSH32 0x4E487B7100000000000000000000000000000000000000000000000000000000 PUSH0 MSTORE PUSH1 0x11 PUSH1 0x4 MSTORE PUSH1 0x24 PUSH0 REVERT JUMPDEST PUSH0 PUSH2 0x888 DUP3 PUSH2 0x7EF JUMP JUMPDEST SWAP2 POP PUSH2 0x893 DUP4 PUSH2 0x7EF JUMP JUMPDEST SWAP3 POP DUP3 DUP3 ADD SWAP1 POP DUP1 DUP3 GT ISZERO PUSH2 0x8AB JUMPI PUSH2 0x8AA PUSH2 0x851 JUMP JUMPDEST JUMPDEST SWAP3 SWAP2 POP POP JUMP JUMPDEST PUSH0 DUP3 DUP3 MSTORE PUSH1 0x20 DUP3 ADD SWAP1 POP SWAP3 SWAP2 POP POP JUMP JUMPDEST PUSH32 0x77696E646F77206973206E6F7420636C6F736564000000000000000000000000 PUSH0 DUP3 ADD MSTORE POP JUMP JUMPDEST PUSH0 PUSH2 0x8F5 PUSH1 0x14 DUP4 PUSH2 0x8B1 JUMP JUMPDEST SWAP2 POP PUSH2 0x900 DUP3 PUSH2 0x8C1 JUMP JUMPDEST PUSH1 0x20 DUP3 ADD SWAP1 POP SWAP2 SWAP1 POP JUMP JUMPDEST PUSH0 PUSH1 0x20 DUP3 ADD SWAP1 POP DUP2 DUP2 SUB PUSH0 DUP4 ADD MSTORE PUSH2 0x922 DUP2 PUSH2 0x8E9 JUMP JUMPDEST SWAP1 POP SWAP2 SWAP1 POP JUMP JUMPDEST PUSH32 0x5441524745542069732072656163686564000000000000000000000000000000 PUSH0 DUP3 ADD MSTORE POP JUMP JUMPDEST PUSH0 PUSH2 0x95D PUSH1 0x11 DUP4 PUSH2 0x8B1 JUMP JUMPDEST SWAP2 POP PUSH2 0x968 DUP3 PUSH2 0x929 JUMP JUMPDEST PUSH1 0x20 DUP3 ADD SWAP1 POP SWAP2 SWAP1 POP JUMP JUMPDEST PUSH0 PUSH1 0x20 DUP3 ADD SWAP1 POP DUP2 DUP2 SUB PUSH0 DUP4 ADD MSTORE PUSH2 0x98A DUP2 PUSH2 0x951 JUMP JUMPDEST SWAP1 POP SWAP2 SWAP1 POP JUMP JUMPDEST PUSH32 0x7468657265206973206E6F2066756E6420666F7220796F750000000000000000 PUSH0 DUP3 ADD MSTORE POP JUMP JUMPDEST PUSH0 PUSH2 0x9C5 PUSH1 0x18 DUP4 PUSH2 0x8B1 JUMP JUMPDEST SWAP2 POP PUSH2 0x9D0 DUP3 PUSH2 0x991 JUMP JUMPDEST PUSH1 0x20 DUP3 ADD SWAP1 POP SWAP2 SWAP1 POP JUMP JUMPDEST PUSH0 PUSH1 0x20 DUP3 ADD SWAP1 POP DUP2 DUP2 SUB PUSH0 DUP4 ADD MSTORE PUSH2 0x9F2 DUP2 PUSH2 0x9B9 JUMP JUMPDEST SWAP1 POP SWAP2 SWAP1 POP JUMP JUMPDEST PUSH0 DUP2 SWAP1 POP SWAP3 SWAP2 POP POP JUMP JUMPDEST POP JUMP JUMPDEST PUSH0 PUSH2 0xA11 PUSH0 DUP4 PUSH2 0x9F9 JUMP JUMPDEST SWAP2 POP PUSH2 0xA1C DUP3 PUSH2 0xA03 JUMP JUMPDEST PUSH0 DUP3 ADD SWAP1 POP SWAP2 SWAP1 POP JUMP JUMPDEST PUSH0 PUSH2 0xA30 DUP3 PUSH2 0xA06 JUMP JUMPDEST SWAP2 POP DUP2 SWAP1 POP SWAP2 SWAP1 POP JUMP JUMPDEST PUSH0 PUSH2 0xA44 DUP3 PUSH2 0x7EF JUMP JUMPDEST SWAP2 POP PUSH2 0xA4F DUP4 PUSH2 0x7EF JUMP JUMPDEST SWAP3 POP DUP3 DUP3 SUB SWAP1 POP DUP2 DUP2 GT ISZERO PUSH2 0xA67 JUMPI PUSH2 0xA66 PUSH2 0x851 JUMP JUMPDEST JUMPDEST SWAP3 SWAP2 POP POP JUMP JUMPDEST PUSH32 0x746869732066756E6374696F6E2063616E206F6E6C792062652063616C6C6564 PUSH0 DUP3 ADD MSTORE PUSH32 0x206279206F776E65720000000000000000000000000000000000000000000000 PUSH1 0x20 DUP3 ADD MSTORE POP JUMP JUMPDEST PUSH0 PUSH2 0xAC7 PUSH1 0x29 DUP4 PUSH2 0x8B1 JUMP JUMPDEST SWAP2 POP PUSH2 0xAD2 DUP3 PUSH2 0xA6D JUMP JUMPDEST PUSH1 0x40 DUP3 ADD SWAP1 POP SWAP2 SWAP1 POP JUMP JUMPDEST PUSH0 PUSH1 0x20 DUP3 ADD SWAP1 POP DUP2 DUP2 SUB PUSH0 DUP4 ADD MSTORE PUSH2 0xAF4 DUP2 PUSH2 0xABB JUMP JUMPDEST SWAP1 POP SWAP2 SWAP1 POP JUMP JUMPDEST PUSH32 0x544152474554206973206E6F7420726561636865640000000000000000000000 PUSH0 DUP3 ADD MSTORE POP JUMP JUMPDEST PUSH0 PUSH2 0xB2F PUSH1 0x15 DUP4 PUSH2 0x8B1 JUMP JUMPDEST SWAP2 POP PUSH2 0xB3A DUP3 PUSH2 0xAFB JUMP JUMPDEST PUSH1 0x20 DUP3 ADD SWAP1 POP SWAP2 SWAP1 POP JUMP JUMPDEST PUSH0 PUSH1 0x20 DUP3 ADD SWAP1 POP DUP2 DUP2 SUB PUSH0 DUP4 ADD MSTORE PUSH2 0xB5C DUP2 PUSH2 0xB23 JUMP JUMPDEST SWAP1 POP SWAP2 SWAP1 POP JUMP JUMPDEST PUSH32 0x73656E64206D6F72652045544800000000000000000000000000000000000000 PUSH0 DUP3 ADD MSTORE POP JUMP JUMPDEST PUSH0 PUSH2 0xB97 PUSH1 0xD DUP4 PUSH2 0x8B1 JUMP JUMPDEST SWAP2 POP PUSH2 0xBA2 DUP3 PUSH2 0xB63 JUMP JUMPDEST PUSH1 0x20 DUP3 ADD SWAP1 POP SWAP2 SWAP1 POP JUMP JUMPDEST PUSH0 PUSH1 0x20 DUP3 ADD SWAP1 POP DUP2 DUP2 SUB PUSH0 DUP4 ADD MSTORE PUSH2 0xBC4 DUP2 PUSH2 0xB8B JUMP JUMPDEST SWAP1 POP SWAP2 SWAP1 POP JUMP JUMPDEST PUSH32 0x77696E646F7720697320636C6F73656400000000000000000000000000000000 PUSH0 DUP3 ADD MSTORE POP JUMP JUMPDEST PUSH0 PUSH2 0xBFF PUSH1 0x10 DUP4 PUSH2 0x8B1 JUMP JUMPDEST SWAP2 POP PUSH2 0xC0A DUP3 PUSH2 0xBCB JUMP JUMPDEST PUSH1 0x20 DUP3 ADD SWAP1 POP SWAP2 SWAP1 POP JUMP JUMPDEST PUSH0 PUSH1 0x20 DUP3 ADD SWAP1 POP DUP2 DUP2 SUB PUSH0 DUP4 ADD MSTORE PUSH2 0xC2C DUP2 PUSH2 0xBF3 JUMP JUMPDEST SWAP1 POP SWAP2 SWAP1 POP JUMP JUMPDEST PUSH0 PUSH10 0xFFFFFFFFFFFFFFFFFFFF DUP3 AND SWAP1 POP SWAP2 SWAP1 POP JUMP JUMPDEST PUSH2 0xC51 DUP2 PUSH2 0xC33 JUMP JUMPDEST DUP2 EQ PUSH2 0xC5B JUMPI PUSH0 DUP1 REVERT JUMPDEST POP JUMP JUMPDEST PUSH0 DUP2 MLOAD SWAP1 POP PUSH2 0xC6C DUP2 PUSH2 0xC48 JUMP JUMPDEST SWAP3 SWAP2 POP POP JUMP JUMPDEST PUSH2 0xC7B DUP2 PUSH2 0x820 JUMP JUMPDEST DUP2 EQ PUSH2 0xC85 JUMPI PUSH0 DUP1 REVERT JUMPDEST POP JUMP JUMPDEST PUSH0 DUP2 MLOAD SWAP1 POP PUSH2 0xC96 DUP2 PUSH2 0xC72 JUMP JUMPDEST SWAP3 SWAP2 POP POP JUMP JUMPDEST PUSH2 0xCA5 DUP2 PUSH2 0x7EF JUMP JUMPDEST DUP2 EQ PUSH2 0xCAF JUMPI PUSH0 DUP1 REVERT JUMPDEST POP JUMP JUMPDEST PUSH0 DUP2 MLOAD SWAP1 POP PUSH2 0xCC0 DUP2 PUSH2 0xC9C JUMP JUMPDEST SWAP3 SWAP2 POP POP JUMP JUMPDEST PUSH0 DUP1 PUSH0 DUP1 PUSH0 PUSH1 0xA0 DUP7 DUP9 SUB SLT ISZERO PUSH2 0xCDF JUMPI PUSH2 0xCDE PUSH2 0x766 JUMP JUMPDEST JUMPDEST PUSH0 PUSH2 0xCEC DUP9 DUP3 DUP10 ADD PUSH2 0xC5E JUMP JUMPDEST SWAP6 POP POP PUSH1 0x20 PUSH2 0xCFD DUP9 DUP3 DUP10 ADD PUSH2 0xC88 JUMP JUMPDEST SWAP5 POP POP PUSH1 0x40 PUSH2 0xD0E DUP9 DUP3 DUP10 ADD PUSH2 0xCB2 JUMP JUMPDEST SWAP4 POP POP PUSH1 0x60 PUSH2 0xD1F DUP9 DUP3 DUP10 ADD PUSH2 0xCB2 JUMP JUMPDEST SWAP3 POP POP PUSH1 0x80 PUSH2 0xD30 DUP9 DUP3 DUP10 ADD PUSH2 0xC5E JUMP JUMPDEST SWAP2 POP POP SWAP3 SWAP6 POP SWAP3 SWAP6 SWAP1 SWAP4 POP JUMP JUMPDEST PUSH0 PUSH2 0xD47 DUP3 PUSH2 0x7EF JUMP JUMPDEST SWAP2 POP PUSH2 0xD52 DUP4 PUSH2 0x7EF JUMP JUMPDEST SWAP3 POP DUP3 DUP3 MUL PUSH2 0xD60 DUP2 PUSH2 0x7EF JUMP JUMPDEST SWAP2 POP DUP3 DUP3 DIV DUP5 EQ DUP4 ISZERO OR PUSH2 0xD77 JUMPI PUSH2 0xD76 PUSH2 0x851 JUMP JUMPDEST JUMPDEST POP SWAP3 SWAP2 POP POP JUMP JUMPDEST PUSH32 0x4E487B7100000000000000000000000000000000000000000000000000000000 PUSH0 MSTORE PUSH1 0x12 PUSH1 0x4 MSTORE PUSH1 0x24 PUSH0 REVERT JUMPDEST PUSH0 PUSH2 0xDB5 DUP3 PUSH2 0x7EF JUMP JUMPDEST SWAP2 POP PUSH2 0xDC0 DUP4 PUSH2 0x7EF JUMP JUMPDEST SWAP3 POP DUP3 PUSH2 0xDD0 JUMPI PUSH2 0xDCF PUSH2 0xD7E JUMP JUMPDEST JUMPDEST DUP3 DUP3 DIV SWAP1 POP SWAP3 SWAP2 POP POP JUMP INVALID LOG2 PUSH5 0x6970667358 0x22 SLT KECCAK256 ORIGIN ORIGIN 0x4C 0xC0 ADDMOD SLOAD 0x4F GAS 0xB3 PUSH13 0xF2698CCA4FA8705880F127F91 0xA6 PUSH18 0xA4D5BAF6FC3EA764736F6C634300081A0033 "
				},
				"gasEstimates": {
					"creation": {
						"codeDepositCost": "720200",
						"executionCost": "infinite",
						"totalCost": "infinite"
					},
					"external": {
						"fund()": "infinite",
						"fundersToAmount(address)": "2823",
						"getChainlinkDataFeedLatestAnswer()": "infinite",
						"getFund()": "infinite",
						"reFund()": "infinite",
						"transferOwnership(address)": "26972"
					},
					"internal": {
						"convertEthToUSD(uint256)": "infinite"
					}
				},
				"methodIdentifiers": {
					"fund()": "b60d4288",
					"fundersToAmount(address)": "9f883a05",
					"getChainlinkDataFeedLatestAnswer()": "bea4dfb5",
					"getFund()": "8edd6eb6",
					"reFund()": "0ff0a4df",
					"transferOwnership(address)": "f2fde38b"
				}
			},
			"storageLayout": {
				"storage": [
					{
						"astId": 53,
						"contract": "toppo/FundMe.sol:FungMe",
						"label": "fundersToAmount",
						"offset": 0,
						"slot": "0",
						"type": "t_mapping(t_address,t_uint256)"
					},
					{
						"astId": 60,
						"contract": "toppo/FundMe.sol:FungMe",
						"label": "MIN_VAULE",
						"offset": 0,
						"slot": "1",
						"type": "t_uint256"
					},
					{
						"astId": 63,
						"contract": "toppo/FundMe.sol:FungMe",
						"label": "dataFeed",
						"offset": 0,
						"slot": "2",
						"type": "t_contract(AggregatorV3Interface)45"
					},
					{
						"astId": 72,
						"contract": "toppo/FundMe.sol:FungMe",
						"label": "owner",
						"offset": 0,
						"slot": "3",
						"type": "t_address"
					},
					{
						"astId": 74,
						"contract": "toppo/FundMe.sol:FungMe",
						"label": "deploymentTimestamp",
						"offset": 0,
						"slot": "4",
						"type": "t_uint256"
					},
					{
						"astId": 76,
						"contract": "toppo/FundMe.sol:FungMe",
						"label": "lockTime",
						"offset": 0,
						"slot": "5",
						"type": "t_uint256"
					}
				],
				"types": {
					"t_address": {
						"encoding": "inplace",
						"label": "address",
						"numberOfBytes": "20"
					},
					"t_contract(AggregatorV3Interface)45": {
						"encoding": "inplace",
						"label": "contract AggregatorV3Interface",
						"numberOfBytes": "20"
					},
					"t_mapping(t_address,t_uint256)": {
						"encoding": "mapping",
						"key": "t_address",
						"label": "mapping(address => uint256)",
						"numberOfBytes": "32",
						"value": "t_uint256"
					},
					"t_uint256": {
						"encoding": "inplace",
						"label": "uint256",
						"numberOfBytes": "32"
					}
				}
			},
			"userdoc": {
				"kind": "user",
				"methods": {},
				"version": 1
			}
		}
	}
}